:020000040800F2
:100000000809002041020008812E0008D1260008BE
:100010007D2E00084B1400085D2F00080000000032
:10002000000000000000000000000000872E000813
:100030004F14000800000000852E0008892E0008DB
:100040005B0200085B0200085B0200085B0200081C
:100050005B0200085B0200085B0200085B0200080C
:100060005B0200085B0200085B0200085B020008FC
:100070005B0200085B0200085B0200085B020008EC
:100080005B0200085B0200085B0200085B020008DC
:100090005B0200085B0200085B0200085B020008CC
:1000A0005B0200085B0200085B0200085B020008BC
:1000B0005B0200085B0200085B0200085B020008AC
:1000C0005B0200085B0200085B0200085B0200089C
:1000D0005B0200085B0200085B0200085B0200088C
:1000E0005B0200085B0200085B0200085B0200087C
:1000F0005B0200085B0200085B0200085B0200086C
:100100005B0200085B0200085B0200085B0200085B
:100110005B0200085B0200085B0200085B0200084B
:100120005B0200085B0200085B0200085B0200083B
:100130005B0200085B0200085B0200085B0200082B
:100140005B0200085B0200085B0200085B0200081B
:100150005B0200085B0200085B0200085B0200080B
:100160005B0200085B0200085B0200085B020008FB
:100170005B0200085B0200085B0200080000000050
:100180005B0200085B02000800F002F800F049F88A
:100190000AA090E8000C82448344AAF10107DA45E2
:1001A00001D100F03EF8AFF2090EBAE80F0013F0EB
:1001B000010F18BFFB1A43F001031847D4320000A7
:1001C000F4320000103A24BF78C878C1FAD8520738
:1001D00024BF30C830C144BF04680C6070470000C1
:1001E0000023002400250026103A28BF78C1FBD840
:1001F000520728BF30C148BF0B607047662903F023
:10020000E580002070471FB503F0DBF800F0E0FB4D
:1002100004000020002103F047F8E0601FBD10B586
:1002200010BD00F0D5FC1146FFF7EDFF02F088FF8E
:1002300000F0F3FC03B4FFF7F2FF03BC00F036FD5F
:100240000948804709480047FEE7FEE7FEE7FEE76A
:10025000FEE7FEE7FEE7FEE7FEE7FEE704480549A6
:10026000054A064B70470000492F00088901000825
:1002700008030020080900200805002008050020C8
:1002800053EA020C00F069802DE9F04B4FF00006B4
:10029000002B1FBFB3FA83F503FA05F424FA05F621
:1002A0005E4012BF1643B2FA82F502FA05F4C5F1B8
:1002B00020051EBF22FA05FC44EA0C04203556EA4C
:1002C000044C4FEA144418BF641C4FF000084FF070
:1002D0000009904271EB030C39D3002919BFB1FA20
:1002E00081F701FA07F6B0FA80F700FA07F6C7F1CE
:1002F00020071EBF20FA07FC46EA0C062037B6FB93
:10030000F4FCA7EB0507103F07F01F0BCBF120060D
:100310000CFA0BFB2CFA06F644BFB3460026202F3E
:10032000A4BF5E464FF0000B5BEA060C08BF4FF01F
:10033000010B19EB0B09ABFB027C48EB0608C01B59
:1003400006FB02CC0BFB03CC71EB0C01C1E70B46A7
:10035000024641464846BDE8F08B13B54FF0000019
:100360004FF00001AFF30080BDE81C407047000073
:100370000FB41CB5074B06AA7B446946009005984C
:1003800000F00DFB0020694600F01CFB1CBC5DF872
:1003900014FB00004906000070B50446856900683A
:1003A000C10601D5302600E02026C00707D070BD69
:1003B000D4E9012130469047206A401C20626D1E1E
:1003C000F6D570BD70B5044685690078C00707D1C1
:1003D00070BDD4E9012120209047206A401C206292
:1003E0006D1EF6D570BD00002DE9F05F894604460C
:1003F0004FF0000ADFF824B1FB44C0F820A02046EB
:10040000E168884700287DD0252806D0D4E901215D
:100410009047206A401C2062F1E700255F46204695
:10042000E16888472028064607DB312E05D2B81937
:1004300010F8200C08B10543F1E7A80701D525F015
:100440000405C4F81CA00027C4F818A02A2E09D05F
:10045000304602F0B9FD38B304EB8708303EC8F8E7
:10046000186019E059F8041B204604EB87029161DB
:10047000E1688847012F064618D1E069002820DA94
:1004800025F020051DE0D8F8180000EB800006EBF1
:1004900040003038C8F818002046E1688847064612
:1004A00002F092FD0028EED1012F0AD02E2E08D1A5
:1004B0002046E16888477F1C0646022F45F020054C
:1004C000C4DBA069002803DA404245F00105A061C1
:1004D000E80701D025F01005A6B1A6F141001928C2
:1004E00002D8203645F400654A463146204625604C
:1004F0004D46FFF783FE60B1012807D0ED1D25F0C2
:10050000070000E007E000F1080978E705F10409B9
:1005100075E730467AE7206ABDE8F09FEC2F0000CF
:100520004FF0000200B5134694469646203922BF8C
:10053000A0E80C50A0E80C50B1F12001BFF4F7AFD7
:10054000090728BFA0E80C5048BF0CC05DF804EBB9
:10055000890028BF40F8042B08BF704748BF20F827
:10056000022B11F0804F18BF00F8012B7047704725
:100570007047704770472DE9FF4F0C461E464FF0FD
:10058000FF378BB0D2E90001DDF860800A908A461F
:10059000C1F30A5505B93D46002108464FF0000059
:1005A000BAF1000F00F4400005DA00EB80004FF4D0
:1005B000400101EA50004FEA9059B9F1010F00DD06
:1005C000B9460A9850EA4A000ED044F61050A5F2F7
:1005D000FF3545432F14B8F1000F1ED07542291E78
:1005E0001EDDC9F100021CE0B8F1010F4FF0000060
:1005F00001D0302103E0F24305E02154401CB04219
:10060000FBDB30460022002121540B99C1F8088001
:10061000C1E900200FB0BDE8F08FBD1B6D1CDEE707
:100620004A4600DA694206A800F05CFA06AB93E895
:10063000070003AB83E8070050460A9900F03DFB32
:100640008DE80700A0F500501F3800900398002D9A
:100650000ADD42F21F014A460844002303A9039021
:10066000684600F0A6FD09E0A0F500504A461F3894
:10067000002303A90390684600F0B0FD8DE8070051
:100680000004000C03D04FF0FF30410800E010469A
:10069000B8F1000F03D00022009215461EE0751E2F
:1006A00005D400F099F9303262556D1EF9D5B34684
:1006B0000122084302D000227F1C04E02078302869
:1006C00001D100227F1E002A099784D01DE0112D40
:1006D00007DA00F081F9303262556D1C50EA0102F0
:1006E000F5D1084302D00098C8B10EE00021681E81
:1006F00005E0235C625C63542254401E491C814225
:10070000F7DBAB46A81B401E0990002004F80B0045
:100710000B98099AC0F80880C0E9002B7AE71126E7
:100720004FF0000857E72DE9F04F88460446D21DE8
:1007300022F0070191B0D1E90001CDE90A0102F0F0
:100740000FFC02460B98C00F01D02D2007E0206857
:10075000810701D52B2002E0202101EAC000032AF5
:10076000099001D0072A05DB03464146204600F0E8
:1007700079F90BE12078800601D5E06900E00620D8
:10078000B8F1650F814606D0B8F1660F18D0B8F100
:10079000670F70D131E00020B9F1110F009001DB3B
:1007A000112301E009F101030AAA01A90CA8FFF72E
:1007B000E2FEDDE90C70002609F10105834647E001
:1007C00001204B4600904FF000470AAA01A90CA84F
:1007D000FFF7D1FEDDE90DB00C995D46002610B99A
:1007E00009F101000D18B9EB050003D4C0F1FF3683
:1007F00009F10105A5EB09002BE0B9F1010F01DAC0
:100800004FF001090020B9F1110F0090484601DDB9
:10081000112300E003460AAA01A90CA8FFF7ABFECA
:10082000DDE90C704D4600268346207800070AD487
:10083000AB4500DA5D4601A8012D04DD411911F830
:10084000011C302907D04F4502DA17F1040F04DAF2
:10085000012082460FE06D1EEEE7002F02DCED1B4B
:100860003E4403E0781CA84200DD7D1CB81B00F16B
:10087000010A4FF000472078000703D4AA4501DBA6
:100880004FF0FF3A0021B7F1004F0DF143088DF80A
:10089000431024D002202B23002F01DA7F422D2386
:1008A0000A21021EA0F1010000DC5FB197FBF1FC00
:1008B00097FBF1F201FB1C7C17460CF1300C08F899
:1008C00001CDEEE7A8F1010003702188090501D5EB
:1008D000452100E06521A0F1010800F8011C0998FC
:1008E0000FA9A1EB0807FF1D00B10120411901EB81
:1008F000EA70A1693844081A401EA0612078C00639
:1009000002D42046FFF748FD099828B1D4E9012117
:100910009047206A401C20622078C00622D52046DD
:10092000FFF73AFD1EE0002E04DBB34502DD01A80F
:10093000805D00E03020D4E901219047206A401C0E
:100940002062761CAAF101005FEA000A0AD100F0D9
:100950003FF8C0680168405CD4E901219047206AF3
:10096000401C2062281EA5F10105DCDC07E0D4E96B
:10097000012118F8010B9047206A401C2062381EA4
:10098000A7F10107F3DC2046FFF71CFD032011B09F
:1009900041E6000001694A1C02610878704700B511
:1009A0008FB0CDE901310021059105497944CDE9A8
:1009B000031011466846FFF717FD0FB000BD000099
:1009C000E5FFFFFF0A6802F8010B0A6070470000AC
:1009D00000487047C802002030B5B0F10A024FEA63
:1009E000900E71F100034EEA817EB0EB0E0061EBD8
:1009F00091014FEA101E4EEA017E10EB0E0041EB12
:100A000011114FEA102E4EEA016E10EB0E0041EB71
:100A100011214FEA104E4EEA014E10EB0E0041EB51
:100A20001141401841F100014FEAD00040EA417005
:100A30004FEAD10110EB80054FEA810444EA90743B
:100A400044EB01046D1944EB0404521BA3414FF025
:100A5000000348BF0A3200D530BD401C41F10001FF
:100A600030BD00002DE9F0411F4604460326016811
:100A7000072A01F4006004DB08B116A505E016A5FD
:100A800003E008B115A500E015A521F010002060D5
:100A9000A069C01EA0610FB1401EA0612046FFF7F3
:100AA0007BFC4FB1D4E9012138469047206A401CB5
:100AB0002062C01C206206E0206AFAE7D4E9012126
:100AC00015F8010B9047761EF8D22046FFF77AFC06
:100AD000BDE8F0814E414E006E616E00494E460009
:100AE000696E66002DE9F047814616468AB03548A2
:100AF00078440DC88DE80D0032487844801C03AC62
:100B00000DC884E80D0041F69B300844372190FB66
:100B1000F1F290FBF1F5A5F1800501FB12041B3CFD
:100B200002D56442012000E00020DFF898A0804652
:100B30000027FA44AAF1BE0A0EE0E0070AD03246C6
:100B4000684607EB470101230AEB810100F046FBF1
:100B50008DE8070064107F1C002CEED1194F7F44F4
:100B6000AE3F19E0E80715D007EB04100DF1180AA5
:100B700090E80E008AE80E00C068F04201D1981992
:100B800008903246012306A903A800F027FB03AB17
:100B900083E807006D10641C002DE3D14FF00103C2
:100BA00032466946B8F1000F03A802D000F001FBFD
:100BB00001E000F013FBC9E90001C9F808200AB000
:100BC000BDE8F0878429000000487047A802002093
:100BD0007546FFF7F9FFAE4605006946534620F01B
:100BE0000700854618B020B5FFF738FBBDE8204068
:100BF0004FF000064FF000074FF000084FF0000BD9
:100C000021F00701AC46ACE8C009ACE8C009ACE88B
:100C1000C009ACE8C0098D46704710B50446AFF373
:100C200000802046BDE81040FFF704BB4FF0013CB8
:100C300050F8042B51F8043B9A4221D1A2EB0C034B
:100C4000934313EACC1317D150F8042B51F8043B0B
:100C50009A4215D1A2EB0C03934313EACC130BD1A8
:100C600050F8042B51F8043B9A4209D1A2EB0C0333
:100C7000934313EACC13DBD04FF00000704700BF62
:100C8000D01A01BAB1FA81F101F0180122FA01F08B
:100C9000CB40C1F12001DBB2C0B2C01A2CFA01F383
:100CA000D11A914311EAC311E6D1704701491820C6
:100CB000ABBEFEE72600020070475FEA400C08BFAB
:100CC00091F0000F4FEA8C234FEAC12243EA5151C1
:100CD0004FEA1C5018BF00F5F0404FEA300018BF33
:100CE00041F000415FEA6C5C00F02980BCF1FF3FFD
:100CF00008BF40F080407047130C06BF12044FF04D
:100D0000100C4FF0000C130E04BF12020CF1080C73
:100D1000130F04BF12010CF1040C930F04BF9200D7
:100D20000CF1020CD30F04BF52000CF1010C114660
:100D30004FF00002A0F11F00A0EB0C00704711F073
:100D4000004F08BF704731F000413FF4D5AF0B0CA6
:100D500006BF09044FF0100C4FF0000C0B0E04BF3F
:100D600009020CF1080C0B0F04BF09010CF1040C73
:100D70008B0F04BF89000CF1020CCB0F04BF49009C
:100D80000CF1010CCCF12003A0EB0C0022FA03F3D0
:100D900002FA0CF241EA030100F10100704720F071
:100DA0007F4C80EA030023F07F47ACEB070303F599
:100DB0007C5300F0004003F1FF032DE980494FEA26
:100DC000154B09B44FEA144325EA0B4E24EA0348B5
:100DD0000FF2042606EB132749083E785FEA320239
:100DE00003FB0667C7F5000707FB06F64FEA543713
:100DF0004FEAD64606F1020607FB066CCCF1005C12
:100E00004FEA1C472CEA074C07FB06F40CFB06F5DF
:100E100004EB15464FEA961634BF00204FF0004011
:100E20004FEAD13706FB07FC4FEA1C4C0CFB0BF7D3
:100E3000D21B03FB0CF761EB07010CFB0EF7B0EBC9
:100E4000074072EB17420CFB08F734BFA2EB0742D6
:100E5000B2EB074261EB17414FEA0C444FEA9107AE
:100E600006FB07FC4FEA1C4C0CFB0BF7B0EBC74032
:100E700072EB573203FB0CF734BFA2EBC742B2EB65
:100E8000C74261EB57310CFB0EF7B0EBC70072EBBA
:100E900057720CFB08F734BFA2EBC702B2EBC702D4
:100EA00061EB5771039F4FEA816141EA921104EBB4
:100EB000CC044FEAD1374FEA826206FB07FC42EAD4
:100EC00090124FEA80604FEA1C4C0CFB0BF7D21BD0
:100ED00003FB0CF761EB07010CFB0EF7B0EB0740CF
:100EE00072EB17420CFB08F734BFA2EB0742B2EBE0
:100EF000074261EB17414FEA8C554FEA910704EB2B
:100F00009C2406FB07FC4FEA1C4C0CFB0BF7B0EBD8
:100F1000C74072EB573203FB0CF734BFA2EBC7425A
:100F2000B2EBC74261EB57310CFB0EF7B0EBC700D9
:100F300072EB57720CFB08F734BFA2EBC702B2EB9F
:100F4000C70261EB577115EB4C254FEA816141EA0D
:100F500092114FEA82624FEAD13742EA901206FBC1
:100F600007FC44F100044FEA80604FEA1C4C0CFB84
:100F70000BF7D21B03FB0CF761EB07010CFB0EF721
:100F8000B0EB074072EB17420CFB08F734BFA2EB43
:100F90000742B2EB074261EB174115EB1C154FEA14
:100FA000813141EA92414FEA823242EA90424FEA6D
:100FB00080304FEA0C7644F1000448EA03434EEADD
:100FC0000B484FF0000EB2EB080C71EB030724BF87
:100FD000624639464EEB0E0E4FF0000B00185241A0
:100FE00049414BEB0B0BB2EB080C71EB03077BF1A8
:100FF000000B24BF624639464EEB0E0E4FF0000B3D
:101000000018524149414BEB0B0BB2EB080C71EB52
:1010100003077BF1000B24BF624639464EEB0E0EF0
:1010200051EA020718BF46F0010616EB0E7655F19D
:10103000000254F1000103D5BDE88901BDE8008834
:10104000BDE88901BDE80048B619524141EB0101F4
:10105000A3F10103704780807F7E7D7C7B7A797865
:10106000777676757473727171706F6E6E6D6C6C6D
:101070006B6A6A696868676666656464636362610F
:101080006160605F5F5E5E5D5D5C5C5B5B5A5A5990
:1010900059585857575656555555545453535252FC
:1010A0005251515050504F4F4F4E4E4D4D4D4C4C54
:1010B0004C4B4B4B4A4A4A4949494848484747479D
:1010C00047464646454545444444444343434342DA
:1010D000424242414141002B9C4630D477002BD004
:1010E0001CB54FEA370703B44FF010004FF0100162
:1010F000BAF1000F06D0BCF1000FDCBF40F00800D1
:1011000040F008014FF000000FBCBDE810400BF1AB
:10111000010BBBF1010F08BF5FEA170722BF12F1F5
:10112000010211F101014FF0004143F1000300F011
:10113000004043EA00007047F9D35708D0E746EA79
:10114000064613F1400F4FEA16461FDD13F1200F3C
:10115000DFBF16430A46002120335B42BED0C3F1F5
:10116000200746EA064602FA07F74FEA164646EA1D
:101170000706C3F1200722FA03F201FA07F721FA62
:1011800003F14FF0000342EA0702A7E746EA02062E
:1011900046EA06464FEA164646EA0106BCBF46EA5C
:1011A0000646360C4FF000034FF000024FF00001EE
:1011B00094E72DE9804C9A46934670B491E8380044
:1011C00007C831EA400C48BF34EA430C03D5FFF7A7
:1011D000E6FDFFF780FFF0BCBDE8008C2DE9804CF8
:1011E0009A46934670B491E8380007C810F0804FD3
:1011F00008BF13F0804F03D100F005F8FFF76BFF35
:10120000F0BCBDE8008C20F07F4780EA030023F0AB
:101210007F4C07EB0C03A3F57C5300F00040A3F1D7
:10122000FE0392F0000F00F0B38095F0000F00F085
:1012300077802DE901494FEA11404FEA144621EA2F
:10124000004800FB06FC24EA064708FB06F607FBFD
:1012500008F800FB07F718EB06484CEB164C4FEA72
:10126000124B18EB07484FEA15464CEB174022EAA1
:101270000B4E0BFB06FC25EA06470EFB06F607FBAA
:101280000EFE0BFB07F71EEB064E4CEB164C4FF019
:1012900000061EEB074E4CEB174B18EB0B0840F10A
:1012A000000018EB0E0B58EB000840F100008F1AFD
:1012B0004FF000013CBFC943661B14BFB5EB040CE3
:1012C00000213CBFC943F61B4FEA17444EEA8E0E7D
:1012D00027EA04454FEA1C4704FB07622CEA074C47
:1012E00005FB07F70CFB05F604FB0CFC16EB0746A9
:1012F00042EB174216EB0C4642EB1C421BEB060678
:1013000058EB0202414146EA9E0601D5BDE801893B
:10131000B619524141EB0101A3F10103BDE8018976
:101320004FEA14454FEA114724EA054621EA074CE3
:1013300005FB07F406FB07F70CFB06F105FB0CFCAD
:1013400011EB074144EB17444FEA124711EB0C41F4
:1013500044EB1C4422EA074C05FB07F206FB07F7A7
:101360000CFB06F605FB0CFC16EB074642EB17429E
:1013700016EB0C4642EB1C456A1854F1000148BFBD
:101380007047B619524141EB0101A3F101037047C7
:1013900095F0000F37D04FEA11424FEA144721EA87
:1013A000024624EA074C02FB07F106FB07F70CFB99
:1013B00006F402FB0CFC14EB074441EB17414FEA27
:1013C000154714EB0C4441EB1C4125EA074C02FB8A
:1013D00007F506FB07F70CFB06F602FB0CFC16EB09
:1013E000074645EB174516EB0C4645EB1C42121918
:1013F00051F1000148BF7047B619524141EB01015C
:10140000A3F1010370474FEA14454FEA114724EA5C
:10141000054621EA074C05FB07F106FB07F70CFB25
:1014200006F24FF0000605FB0CFC12EB074241EB05
:10143000174112EB0C4251EB1C4148BF7047921808
:1014400041EB0101A3F10103704700BFFEE77047C4
:1014500072B600BFFEE7000070B5044600F018F950
:1014600006462546681C10B104480078054400BFB4
:1014700000F00EF9801BA842FAD370BD5400002082
:10148000F8B502460B460025002400200021D5E0D7
:10149000012606FA01F51E6806EA0504AC4274D17D
:1014A0001E7906F00306012E04D01E7906F003060D
:1014B000022E13D190684F000326BE40B0434F0068
:1014C000DE68BE4030439060506801268E40B043D5
:1014D0001E79C6F300168E40304350601E7906F028
:1014E0000306032E09D0D0684F000326BE40B04348
:1014F0004F009E68BE403043D0601E7906F0030660
:10150000022E13D1CF0802F1200656F827004E070D
:10151000F70E0F26BE40B0434F07FF0E1E69BE40B8
:101520003043CF0802F1200646F8270010684F002C
:101530000326BE40B0431E7906F003064F00BE40AE
:10154000304310605E6806F44036002E75D000BF50
:10155000002600963B4E366846F48046394F3E6082
:101560003E46366806F48046009600BF00BF364E01
:101570008F0856F827008E07370F0F26BE40B0435E
:10158000324EB24202D1002624E056E0304EB24242
:1015900001D101261EE02F4EB24201D1022619E0F0
:1015A0002D4EB24201D1032614E02C4EB24201D19D
:1015B00004260FE02A4EB24201D105260AE0294E48
:1015C000B24201D1062605E0274EB24201D10726DC
:1015D00000E008268F073F0FBE4030431A4E8F08A9
:1015E00046F82700214E3068A0435E6806F4803636
:1015F00006B120431D4E3060361D3068A0435E6842
:1016000006F4003606B12043184E361D3060361DF4
:101610003068A0435E6806F4801606B12043134E7E
:1016200008363060361D3068A0435E6806F4001648
:1016300006B120430D4E0C363060491C1029FFF4D2
:1016400027AFF8BD4438024008380140000002408E
:101650000004024000080240000C0240001002405A
:101660000014024000180240001C0240003C0140EF
:1016700010B5426921EA020302EA010443EA044385
:10168000836110BD0AB1816101E00B048361704781
:1016900001480068704700004C00002070B5044607
:1016A0000CB9012070BD94F83D0028B9002084F8E1
:1016B0003C00204600F00EFB242084F83D0020680A
:1016C000006820F00100216808602068006840F48C
:1016D0000040216808602068006820F4004021680C
:1016E000086000F025FD05465C496068884206D820
:1016F0005B48854201D2012007E0002005E05948FF
:10170000854201D2012000E00020012800D1C9E774
:101710005548B5FBF0F62068406820F03F003043A4
:10172000216848604D496068884201D8701C07E014
:101730004FF4967070434FF47A71B0FBF1F0401C97
:101740002168096A21F03F01084321680862434982
:101750006068884214D8681E61684900B0FBF1F0E7
:10176000401CC0F30B00042801D204203DE0681E99
:1017700061684900B0FBF1F0401CC0F30B0034E09D
:10178000A06838B9681E616801EB4101B0FBF1F057
:10179000401C0AE0681E616801EBC10202EB011106
:1017A000B0FBF1F0401C40F48040C0F30B0008B9DE
:1017B00001201AE0A06848B9681E616801EB410188
:1017C000B0FBF1F0401CC0F30B000CE0681E616838
:1017D00001EBC10202EB0111B0FBF1F0401CC0F3C0
:1017E0000B0040F4804040F400402168C9694CF689
:1017F000FF72914308432168C861D4E90701084397
:101800002168096821F0C001084321680860D4E913
:10181000031008432168896848F2FF329143084366
:1018200021688860D4E9050108432168C96821F06E
:10183000FF0108432168C8602068006840F001008B
:101840002168086000202064202084F83D000020EA
:10185000206384F83E0000BF24E70000A08601005A
:1018600080841E0000093D0040420F002DE9F8432E
:101870000446894617469846089EFFF709FF054625
:1018800094F83D0020287DD119230122B249204639
:10189000009501F069F810B10220BDE8F88300BF9F
:1018A00094F83C00012801D10220F6E7012084F8D9
:1018B0003C0000BF2068006800F0010028B92068E3
:1018C000006840F00100216808602068006820F48A
:1018D000006021680860222084F83D00102084F810
:1018E0003E00002020646762A4F82A80608D208575
:1018F0009A48E0622B4632464946204600F00AFFED
:1019000008B10120C9E7208D88B900BF00200090F0
:1019100020684069009020688069009000BF00BF87
:101920002068006840F400702168086047E0208D5E
:10193000012817D12068006820F4806021680860C1
:1019400000BF0020009020684069009020688069F6
:10195000009000BF00BF2068006840F4007021685C
:1019600008602CE0208D022818D12068006820F43F
:101970008060216808602068006840F40060216889
:10198000086000E0E6E000BF0020009020684069A9
:10199000009020688069009000BF10E02068006817
:1019A00040F480602168086000BF0020009020683B
:1019B0004069009020688069009000BF00BFBAE0D5
:1019C000208D03287ED8208D012815D12A46314646
:1019D000204601F06EF808B101205EE7206800693A
:1019E000616A0870606A401C6062208D401E20851C
:1019F000608D401E60859EE0208D02282AD13346EE
:101A0000002257492046009500F0AEFF08B10120A2
:101A100043E72068006840F400702168086020688F
:101A20000069616A0870606A401C6062208D401E17
:101A30002085608D401E608520680069616A08709D
:101A4000606A401C6062208D401E2085608D401EB3
:101A5000608570E03346002241492046009500F041
:101A600083FF08B1012018E72068006820F4806037
:101A70002168086020680069616A0870606A401C1B
:101A80006062208D401E2085608D401E608533463B
:101A9000002233492046009500F066FF08B101207E
:101AA000FBE62068006840F4007021680860206848
:101AB0000069616A0870606A401C6062208D401E87
:101AC000208500E010E0608D401E60852068006980
:101AD000616A0870606A401C6062208D401E20852B
:101AE000608D401E608526E02A463146204600F083
:101AF000E0FF08B10120D0E620680069616A087043
:101B0000606A401C6062208D401E2085608D401EF2
:101B1000608520684069C0F3800060B1206800697A
:101B2000616A0870606A401C6062208D401E2085DA
:101B3000608D401E6085208D00287FF441AF2020FD
:101B400084F83D00002084F83E0000BF84F83C008B
:101B500000BFA2E60220A0E6020010000000FFFF86
:101B6000040001002DE9F8430446894616461F4645
:101B7000DDF82080FFF78CFD054694F83D00202815
:101B80007ED11923012251492046009500F0ECFE38
:101B900010B10220BDE8F88300BF94F83C00012892
:101BA00001D10220F6E7012084F83C0000BF206844
:101BB000006800F0010028B92068006840F00100CA
:101BC000216808602068006820F4006021680860CF
:101BD000212084F83D00102084F83E00002020647D
:101BE00066626785608D20853948E0622B464246F3
:101BF0004946204600F02AFE08B10120CAE700BF8E
:101C00000020009020684069009020688069009062
:101C100000BF00BF44E02A464146204600F089FF4D
:101C200050B1206C042805D12068006840F4007091
:101C3000216808600120ADE7606A007821680861CA
:101C4000606A401C6062608D401E6085208D401E71
:101C5000208520684069C0F3800070B1208D60B19C
:101C6000606A007821680861606A401C6062608D6B
:101C7000401E6085208D401E20852A46414600E09A
:101C800022E0204600F042FE50B1206C042805D12D
:101C90002068006840F4007021680860012079E73E
:101CA000208D0028B7D12068006840F400702168BA
:101CB0000860202084F83D00002084F83E0000BF2A
:101CC00084F83C0000BF65E7022063E702001000D3
:101CD0000000FFFF10B586B00446142101A8FEF7EE
:101CE0001FFC4449206888422FD100BF002000908B
:101CF0004148006840F002003F490860084600681B
:101D000000F00200009000BF00BF4FF4407001904F
:101D1000122002900020039004900420059001A955
:101D20003648FFF7ADFB00BF00200090324810306E
:101D3000006840F40010304910310860084600681F
:101D400000F40010009000BF51E02D492068884247
:101D50004DD100BF002000902748006840F00400EB
:101D6000254908600846006800F00400009000BFA4
:101D700000BF00BF002000900846006840F001004E
:101D800008600846006800F00100009000BF00BF36
:101D90004815019012200290002003900320049027
:101DA0000420059001A91748FFF76AFB4FF48070E3
:101DB0000190122002900020039003200490042040
:101DC000059001A91048FFF75BFB00BF00200090C1
:101DD00009481030006840F40000074910310860DD
:101DE0000846006800F40000009000BF00BF06B085
:101DF00010BD000000540040303802400004024092
:101E0000005C0040000802400000024003480068F7
:101E10000349097808440149086070474C000020D4
:101E20005400002010B50D48006840F400700B49C4
:101E300008600846006840F4806008600846006852
:101E400040F480700860032000F096F8002000F055
:101E500007F800F02BF8002010BD0000003C024005
:101E600070B504460E4800784FF47A71B1FBF0F07B
:101E70000C490968B1FBF0F5284600F00FFC08B1E9
:101E8000012070BD102C07D200222146501E00F008
:101E900035F80548046001E00120F2E70020F0E792
:101EA00054000020580000205000002008B500BF5A
:101EB000002000901048006840F480400E490860FF
:101EC0000846006800F48040009000BF00BF00BFDB
:101ED00000200090081F006840F08050091F086033
:101EE0000846006800F08050009000BF00BF072047
:101EF00000F042F808BD0000443802402DE9F05FD0
:101F000080460D461646002701F042F8074639463E
:101F10002A46334601F00700C0F1070ABAF1040F60
:101F200002D94FF0040A01E0C0F1070AD14600F1DE
:101F3000040ABAF1070F02D24FF0000A01E0A0F143
:101F4000030AD4464FF0010A0AFA09FAAAF1010A73
:101F50000AEA020A0AFA0CFA4FF0010B0BFA0CFB20
:101F6000ABF1010B0BEA030B4AEA0B042146404696
:101F700001F016F8BDE8F09F00BF00F00702064B25
:101F800019684FF6FF031940044B0B4343EA022143
:101F9000014B196000BF70470CED00E00000FA052E
:101FA00070B504460D460CB9012070BD5848006854
:101FB00000F00700A84209D255490D700846006894
:101FC00000F00700A84201D00120EEE7207800F0E1
:101FD000020002281DD1207800F00400042805D159
:101FE0004C48006840F4E0504A490860207800F00E
:101FF0000800082805D14748006840F4604045497A
:1020000008604448006820F0F000A1680843414996
:102010000860207800F00100A8B36068012807D1AB
:102020003C4808380068C0F34040B8B90120BCE71C
:102030006068022802D06068032807D13548083854
:102040000068C0F3406048B90120AEE73148083865
:102050000068C0F3400008B90120A6E72D480068D9
:1020600020F00300616808432A490860FFF710FB6D
:10207000064609E0FFF70CFB801B41F288318842DD
:1020800002D9032091E707E02248006800F00C0025
:102090006168B0EB810FEDD11D48006800F00700CA
:1020A000A84209D91A490D700846006800F00700D7
:1020B000A84201D0012078E7207800F0040004282D
:1020C00007D11448006820F4E050E1680843114942
:1020D0000860207800F00800082808D10D48006842
:1020E00020F46040216940EAC1000A49086000F01C
:1020F0002FF808490968C1F30311074A515CC84029
:102100000649086006480068FFF7AAFE00204CE771
:10211000003C024008380240D0330008580000203C
:10212000500000200148006870470000580000205F
:1021300000B5FFF7F7FF04490968C1F38221034A9C
:10214000515CC84000BD000008380240E033000880
:102150002DE9F047002400250026A1462548006807
:1021600000F00C0020B1042805D008283AD105E081
:10217000DFF8849039E0DFF8849036E01D48001FD6
:10218000006800F03F041B48001F006800F4800056
:1021900078B11A481749091F0968C1F38811A0FBD3
:1021A00001700146224600233846FEF769F80546CD
:1021B0000EE011480F49091F0968C1F38811A0FBFF
:1021C00001700146224600233846FEF759F80546BD
:1021D0000848001F0068C0F30140401C4600B5FBE2
:1021E000F6F902E0DFF8109000BF00BF4846BDE8F6
:1021F000F0870000083802400024F40000127A0042
:10220000F8B504460CB90120F8BD207800F00100B3
:10221000002874D0F948006800F00C0004280DD0A4
:10222000F648006800F00C00082813D1F348001F9E
:10223000006800F48000B0F5800F0BD1EF4808383B
:102240000068C0F34040002859D06068002856D18B
:102250000120D9E700BF6068B0F5803F08D1E748AA
:102260000838006840F48030E449083908601EE00E
:102270006068B0F5A02F0DD1E0480838006840F440
:102280008020DE49083908600846006840F4803044
:1022900008600CE0D9480838006820F48030D7493D
:1022A000083908600846006820F48020086000BFF4
:1022B000606890B1FFF7ECF9054606E0FFF7E8F932
:1022C000401B642801D903209EE7CC4808380068E9
:1022D000C0F340400028F1D011E0FFF7D9F90546DE
:1022E00006E0FFF7D5F9401B642801D903208BE7EE
:1022F000C24808380068C0F340400028F1D1207877
:1023000000F0020002285FD1BC48006800F00C0019
:1023100058B1BA48006800F00C0008281CD1B74832
:10232000001F006800F48000B0B9B44808380068A5
:10233000C0F3400020B1E068012801D0012063E72C
:10234000AE480838006820F0F800216940EAC10072
:10235000AA490839086037E0E06800B30120A849BD
:102360000860FFF795F9054606E0FFF791F9401B75
:10237000022801D9032047E7A04808380068C0F3C5
:1023800040000028F1D09D480838006820F0F8008F
:10239000216940EAC10099490839086014E0002029
:1023A00097490860FFF774F9054606E0FFF770F9F2
:1023B000401B022801D9032026E79048083800680E
:1023C000C0F340000028F1D1207800F00800082870
:1023D0002CD16069A8B101208A490860FFF758F93B
:1023E000054606E0FFF754F9401B022801D90320F7
:1023F0000AE782486C300068C0F340000028F1D042
:1024000014E000207F490860FFF742F9054606E026
:10241000FFF73EF9401B022801D90320F4E6774874
:102420006C300068C0F340000028F1D1207800F043
:102430000400042870D1002770483830006800F08C
:10244000805090B900BF002000906C483830006880
:1024500040F080506949383108600846006800F053
:102460008050009000BF00BF01276748006800F45B
:102470008070B0B96448006840F4807062490860B8
:10248000FFF706F9054606E0FFF702F9401B0228B0
:1024900001D90320B8E65C48006800F48070002889
:1024A000F2D000BFA068012808D154486830006805
:1024B00040F001005149683108601DE0A06805281E
:1024C0000DD14E486830006840F004004B49683137
:1024D00008600846006840F0010008600CE04748CA
:1024E0006830006820F001004449683108600846FF
:1024F000006820F00400086000BFA068A8B1FFF7E2
:10250000C7F8054609E0FFF7C3F8401B41F28831E0
:10251000884202D9032077E626E038486830006810
:10252000C0F340000028EED013E0FFF7B1F80546F5
:1025300008E0FFF7ADF8401B41F28831884201D92D
:10254000032061E62D4868300068C0F34000002891
:10255000EFD1012F07D129483830006820F0805092
:1025600026493831086000BFA069002845D02348BB
:10257000006800F00C0008285DD0A069022845D151
:1025800000201F490866FFF783F8054606E0FFF7BD
:102590007FF8401B022801D9032035E61748083888
:1025A0000068C0F340600028F1D1D4E90701084376
:1025B000616A40EA81110122A06AC2EB500041EA3F
:1025C00000412C20005D41EA00600C49091F0860B1
:1025D00001200B490866FFF75BF8054606E0FFF7A8
:1025E00057F8401B022801D903200DE6034808389C
:1025F0000068C0F340600028F1D049E0083802408C
:1026000000004742800E47420070004000202149F0
:102610000866FFF73DF8054606E0FFF739F8401B6E
:10262000022801D90320EFE51B480068C0F3406091
:102630000028F2D12CE0A069012800D1E4E5164879
:10264000001D0668A069012820D006F48001E06919
:1026500081421BD106F03F01206A814216D147F624
:10266000C0703040616AB0EB811F0FD106F4403179
:102670000122A06AC2EB5000B1EB004F06D106F078
:1026800070612C20005DB1EB006F01D00120BBE533
:102690000020B9E5000047420038024070B504460A
:1026A0002546681EB0F1807F01D301200FE0681E2F
:1026B0004FF0E02148610F214FF0FF3000F070FC37
:1026C00000204FF0E021886107200861002070BDE4
:1026D00000BFFEE7014608684069C0F38020B0B142
:1026E0006FF480600A68506100200863202081F840
:1026F0003D00002081F83E00086C40F004000864B2
:1027000000BF002081F83C0000BF0120704700207E
:10271000FCE700002DE9F84304460D4690461E46AE
:10272000E76A2068006840F4806021680860082F2C
:1027300004D0012F02D017F5803F06D12068006831
:1027400040F480702168086008E0206B112805D1F2
:102750002068006840F480702168086043460022C9
:102760004FF001112046009600F0FEF860B120689D
:10277000006800F48070B0F5807F02D14FF40070E3
:1027800020640320BDE8F8832069B0F5804F05D1AF
:10279000E8B240F001002168086149E005F44070AA
:1027A000F02141EAE010216808613346424626499B
:1027B000204600F01CF908B10120E3E7E8B22168E7
:1027C0000861334642462049891F204600F00FF930
:1027D00008B10120D6E700BF0020009020684069C2
:1027E000009020688069009000BF00BF20680068EA
:1027F00040F4807021680860434600224FF00111C8
:102800002046009600F0B0F858B12068006800F447
:102810008070B0F5807F02D14FF4007020640320F7
:10282000B0E705F44070F12141EAE0102168086149
:10283000334642460449891F204600F0D8F808B1C3
:1028400001209FE700209DE7080001002DE9F843E3
:1028500004460D4617469846E66A082E04D0012E17
:1028600002D016F5803F06D12068006840F48070E1
:102870002168086008E0206B122805D120680068F4
:1028800040F48070216808603B4600224FF001113F
:102890002046CDF8008000F067F860B1206800683D
:1028A00000F48070B0F5807F02D14FF40070206496
:1028B0000320BDE8F8832069B0F5804F04D105F00E
:1028C000FE002168086112E005F44070F02141EA41
:1028D000E0102168086143463A460B49204600F063
:1028E00086F808B10120E4E7E8B2216808614346B0
:1028F0003A460549891F204600F079F808B10120C1
:10290000D7E70020D5E700000800010070B50446B5
:102910000D46164620E02046FFF7DCFE08B10120F8
:1029200070BD681CC0B1FEF7B3FE801BA84200D882
:1029300095B900202063202084F83D00002084F811
:102940003E00206C40F02000206400BF002084F88E
:102950003C0000BF0120E3E720684069C0F380002D
:102960000028D8D00020DBE72DE9F04104460D46D1
:1029700017461E46DDF818801CE0701CD0B1FEF72B
:1029800087FEA0EB0800B04200D89EB9002020636B
:10299000202084F83D00002084F83E00206C40F0A8
:1029A0002000206400BF002084F83C0000BF01200C
:1029B000BDE8F081C5F3074001280AD120684069CD
:1029C000A9B20840A9B2884201D101200BE0002041
:1029D00009E020688069A9B20840A9B2884201D103
:1029E000012000E00020B842C7D00020E0E72DE938
:1029F000F04104460D4616461F463DE020684069FA
:102A0000C0F38020E8B12068006840F400702168BD
:102A100008606FF4806021684861002020632020F6
:102A200084F83D00002084F83E00206C40F0040053
:102A3000206400BF002084F83C0000BF0120BDE8F6
:102A4000F081701CC0B1FEF723FEC01BB04200D85D
:102A500096B900202063202084F83D00002084F8EF
:102A60003E00206C40F02000206400BF002084F86D
:102A70003C0000BF0120E2E7C5F3074001280AD16E
:102A800020684069A9B20840A9B2884201D101205A
:102A90000BE0002009E020688069A9B20840A9B2D3
:102AA000884201D1012000E000200028A6D00020AB
:102AB000C5E770B504460D46164632E02068406909
:102AC000C0F30010A0B16FF0100021684861002031
:102AD0002063202084F83D00002084F83E00206C14
:102AE000206400BF002084F83C0000BF012070BDBE
:102AF000FEF7CEFD801BA84200D895B900202063C8
:102B0000202084F83D00002084F83E00206C40F036
:102B10002000206400BF002084F83C0000BF01209A
:102B2000E5E720684069C0F380100028C6D0002087
:102B3000DDE770B504460D46164620E02046FFF757
:102B4000C9FD08B1012070BD681CC0B1FEF7A0FD31
:102B5000801BA84200D895B900202063202084F86B
:102B60003D00002084F83E00206C40F020002064EE
:102B700000BF002084F83C0000BF0120E3E720688C
:102B80004069C0F3C0100028D8D00020DBE770B542
:102B900004460D46102C00DB70BD15B1012D04D18B
:102BA00000E002E044F0400400BF00BF44F08004B5
:102BB000204600F049FA00BFEEE7000000B587B0FC
:102BC000142102A8FDF7ACFC00BF0020019087484B
:102BD000006840F01000854908600846006800F071
:102BE0001000019000BF00BF00BF00200190084608
:102BF000006840F0040008600846006800F0040027
:102C0000019000BF00BF00BF00200190084600688F
:102C100040F0800008600846006800F080000190E5
:102C200000BF00BF00BF002001900846006840F0D0
:102C3000010008600846006800F00100019000BF34
:102C400000BF00BF002001900846006840F002006D
:102C500008600846006800F00200019000BF00BF55
:102C600000BF002001900846006840F0080008609E
:102C70000846006800F00800019000BF00BF002275
:102C800008215B48FEF7FEFC012211465948FEF779
:102C9000F9FC00224FF210015748FEF7F3FC082020
:102CA00002900120039000200490059002A9504852
:102CB000FEF7E6FB012002900390002004900590AF
:102CC00002A94C48FEF7DCFB08200290022003908A
:102CD0000020049005900520069002A94548FEF7C3
:102CE000CFFB012002904FF4881003900020049045
:102CF00002A94248FEF7C4FB102002900220039074
:102D00000020049005900620069002A93B48FEF79B
:102D1000B7FBE02002900220039000200490059071
:102D20000520069002A93548FEF7AAFB0420029070
:102D300000200390049002A93148FEF7A1FB4FF454
:102D400080600290022003900020049005900520EE
:102D5000069002A92A48FEF793FB4FF2100002905A
:102D60000120039000200490059002A92248FEF75C
:102D700087FB4FF4A450029002200390002004909F
:102D800005900620069002A91A48FEF779FB4FF439
:102D90000070029000200390049002A91748FEF7EB
:102DA0006FFB4FF4E050029002200390002004904B
:102DB00005900A20069002A91048FEF761FB20202A
:102DC000029000200390049002A90B48FEF758FBE4
:102DD000022002904FF4901003900020049002A96A
:102DE0000348FEF74DFB07B000BD0000303802403D
:102DF0000010024000080240000C024000000240A7
:102E00000004024010B50B480B4908600B484860AD
:102E1000002109488160C1604FF4804101610021B7
:102E200041618161C1610162FEF738FC08B1FEF7C2
:102E30000FFB10BD005400405C000020A086010084
:102E400010B50B480B4908600B4848600021094841
:102E50008160C1604FF48041016100214161816165
:102E6000C1610162FEF71AFC08B1FEF7F1FA10BD6C
:102E7000005C0040B0000020A086010000BFFEE71B
:102E800000BFFEE77047704710B5FEF7BFFF10BDEB
:102E900000B593B0302107A8FDF742FB142102A82A
:102EA000FDF73EFB00BF002001902548006840F080
:102EB0008050234908600846006800F08050019067
:102EC00000BF00BF00BF002001901E48006840F412
:102ED00080401C4908600846006800F4804001906A
:102EE00000BF00BF0220079001200A9010200B9025
:102EF00002200D9000210E9108210F913221109196
:102F0000042111910721129107A8FFF779F908B15F
:102F1000FEF79EFA0F2002900220039000200490FA
:102F20004FF4A05005904FF480500690002102A865
:102F3000FFF736F808B1FEF78BFA13B000BD0000BA
:102F400040380240007000400348006840F47000C0
:102F5000014908607047000088ED00E000BFFEE70F
:102F600003B401984100009850EAC12018BF042022
:102F70004A0D18BF40F0010040F2FF72B2EB515F02
:102F800008BF40F00200012808BF052002B07047CA
:102F900002480068C0F30220704700000CED00E01A
:102FA00010B5002804DB0A07130E054A135406E087
:102FB0000A07140E034A00F00F031B1FD45410BD60
:102FC00000E400E018ED00E030380A2801D20120CA
:102FD000704700207047000010B500210846FFF739
:102FE000D6FD05A000F074F801210020FFF7CFFD09
:102FF00001A000F06DF810BD20202020202020200E
:1030000020202020202020200000000010B50220D9
:1030100000F01AF8282000F017F80C2000F014F83F
:10302000802000F011F8402000F00EF8002405E0A8
:103030000449085D00F02AF8601CC4B2302CF7D3B4
:1030400010BD00001C0000207CB5044604F0F00513
:10305000F02000EA041645F00C008DF8040045F05D
:1030600008008DF8050046F00C008DF8060046F0CB
:1030700008008DF807006420042301AA4E21009067
:103080000148FEF76FFD7CBDB00000207CB5044612
:1030900004F0F005F02000EA041645F00D008DF86C
:1030A000040045F009008DF8050046F00D008DF88C
:1030B000060046F009008DF807006420042301AAE9
:1030C0004E2100900148FEF74DFD7CBDB000002070
:1030D00070B50446207838B900210220FFF757FD6B
:1030E0002020FFF7D3FF1DE019E02078252812D11A
:1030F000641C2078303845B2002D05DB0A2D03DC36
:10310000E8B2FFF7C3FF05E02520FFF7BFFF2078F7
:10311000FFF7BCFF02E02078FFF7B8FF641C2078BF
:103120000028E2D170BD70B506460C46154629460A
:103130002046FFF72CFD3046FFF7CAFF70BD0000A8
:103140002DED028B82B0FEF76DFEFFF7A1FEFFF7BB
:1031500035FDFFF757FEFFF773FEFFF757FFFFF749
:103160003BFF022200213DA0FFF7DDFF75E00024B8
:1031700071E04FF0FF3004233C4A502100903C485E
:10318000FEF774FB3B4908700846007820B13A48C6
:103190000078401C38490870344840783349097831
:1031A00000EB012000B2354908800846B0F9000064
:1031B00000EE100AB8EEC00ADFED310A20EE200A58
:1031C000304880ED000A90ED000A2F4800EB8400A3
:1031D00080ED000A2B4890ED000A2C48D0ED000A43
:1031E000B4EEE00AF1EE10FA05DD264890ED000A93
:1031F000264880ED000A234890ED000A2448D0EDCF
:10320000000AB4EEE00AF1EE10FA05D21D4890ED86
:10321000000A1F4880ED000A1A48006800F060F8B4
:1032200041EC180B53EC182B1AA11C48FDF7A0F821
:10323000012200211948FFF776FF19480068401C59
:10324000174908600A20FEF707F94FF400511548A6
:10325000FEF70EFA641C642C8BDB88E7536C656701
:1032600069732062617261697300000001000020CF
:103270005C00002000000020050000201400002059
:103280000000203A08000020040100200C0000206B
:10329000100000202530322E3132460094020020EA
:1032A00018000020000C024010B500290AD0087850
:1032B000002807D005487844FDF7B8FC002801D065
:1032C000002010BD0248784410BD0000FA01000043
:1032D000F20100000808A0F500114FEA3101704723
:1032E00043004FEAD30C4FEA3C0C43401FBF40075A
:1032F0000CF1605113F0FE4F70471CF0006F03D1CA
:1033000000200CF0004170470CF0004343EA50707D
:1033100010B540EACC0000F00EF800BF00000092AB
:103320004FEA0001FFF7D6BF4FF000414FF0000019
:10333000A1F5002170470EF1020E2EF0030E5EF88B
:10334000044B244204D44FEA4102B2F17F4F11D81A
:103350004FEA4003B3F17F4F0CD80ED14FEAD07C37
:10336000B2F17F4F0CEB4C0C0CF1020C08BF4CEB94
:10337000D17C04E04FF0080C01E04FEAD17C0CEB6B
:103380004C0324FA03F404F00704B4F1040C06D24D
:103390000EEB840CBDE810404CF0010C6047DFE8F8
:1033A0000CF0070802024FF00040A0F5800010BDAD
:1033B0000846420018BFD2F1807288BF00F000407A
:1033C00010BD4FF04070E1EE100A7047FDF7ABB949
:1033D00000000000000000000102030406070809C5
:1033E00000000000010203040400000800000000C7
:1033F0000000000200010000100000000240000078
:10340000000000A00000000005400000000000C80F
:10341000000000000C4000000000409C0000000084
:10342000194000000020BCBE000000003440000035
:10343000BFC91B8E00000004B5400000504BCFD028
:103440006607E2CF010000006C4100003E8251AAF5
:10345000DFEEA73401000000D9420000DCB5A0E295
:103460003A301F97FFFFFFFFB4450000FD25A0C8BD
:10347000E9A3C14FFFFFFFFFFF3F000000000080F6
:1034800000000000FF3F000000000080000000007E
:10349000CC340008000000205C000000C4010008DB
:1034A000283500085C000020AC080000E00100089E
:1034B0001C00000043000000F8FFFFFF0C000000AC
:1034C0000E0000000F0000002E00000000000000B1
:1034D0000000000000000000000000000000C642E4
:1034E00000000000000000000203020504040405BF
:1034F00008100814040404140E0E041F15150A10F5
:103500000E0E041F15150A01000000000000010145
:103510000004081F08040000000000001000000064
:08352000010000000024F4008A
:040000050800018965
:00000001FF
