:020000040800F2
:10000000680700204102000851210008492100082A
:100010004D210008210D00082922000800000000E1
:10002000000000000000000000000000592100084E
:10003000250D000800000000552100085D21000882
:100040005B0200085B0200085B0200085B0200081C
:100050005B0200085B0200085B0200085B0200080C
:100060005B0200085B0200085B0200085B020008FC
:100070005B0200085B0200085B0200085B020008EC
:100080005B0200085B0200085B0200085B020008DC
:100090005B0200085B0200085B0200085B020008CC
:1000A0005B0200085B0200085B0200085B020008BC
:1000B0005B0200085B0200085B0200085B020008AC
:1000C0005B0200085B0200085B0200085B0200089C
:1000D0005B0200085B0200085B0200085B0200088C
:1000E0005B0200085B0200085B0200085B0200087C
:1000F0005B0200085B0200085B0200085B0200086C
:100100005B0200085B0200085B0200085B0200085B
:100110005B0200085B0200085B0200085B0200084B
:100120005B0200085B0200085B0200085B0200083B
:100130005B0200085B0200085B0200085B0200082B
:100140005B0200085B0200085B0200085B0200081B
:100150005B0200085B0200085B0200085B0200080B
:100160005B0200085B0200085B0200085B020008FB
:100170005B0200085B0200085B0200080000000050
:100180005B0200085B02000800F002F800F049F88A
:100190000AA090E8000C82448344AAF10107DA45E2
:1001A00001D100F03EF8AFF2090EBAE80F0013F0EB
:1001B000010F18BFFB1A43F001031847103200006B
:1001C00030320000103A24BF78C878C1FAD85207FC
:1001D00024BF30C830C144BF04680C6070470000C1
:1001E0000023002400250026103A28BF78C1FBD840
:1001F000520728BF30C148BF0B607047662903F023
:100200007A80002070471FB503F063F800F0DEFB32
:1002100004000020002102F08FFEE0601FBD10B539
:1002200010BD00F0D3FC1146FFF7EDFF02F028F9F6
:1002300000F0F1FC03B4FFF7F2FF03BC00F032FD65
:100240000948804709480047FEE7FEE7FEE7FEE76A
:10025000FEE7FEE7FEE7FEE7FEE7FEE704480549A6
:10026000054A064B70470000152200088901000866
:100270006801002068070020680300206803002050
:1002800053EA020C00F069802DE9F04B4FF00006B4
:10029000002B1FBFB3FA83F503FA05F424FA05F621
:1002A0005E4012BF1643B2FA82F502FA05F4C5F1B8
:1002B00020051EBF22FA05FC44EA0C04203556EA4C
:1002C000044C4FEA144418BF641C4FF000084FF070
:1002D0000009904271EB030C39D3002919BFB1FA20
:1002E00081F701FA07F6B0FA80F700FA07F6C7F1CE
:1002F00020071EBF20FA07FC46EA0C062037B6FB93
:10030000F4FCA7EB0507103F07F01F0BCBF120060D
:100310002CFA06F60CFA0BFB44BFB3460026202F3E
:10032000A4BF5E464FF0000B5BEA060C08BF4FF01F
:10033000010B19EB0B0948EB0608ABFB027C06FB33
:1003400002CC0BFB03CCC01B71EB0C01C1E70B46CD
:10035000024641464846BDE8F08B13B5084318BF36
:100360004FF0FF300146AFF30080BDE81C407047FE
:100370000FB41CB5074B06AA7B446946009005984C
:1003800000F00BFB0020694600F01AFB1CBC5DF876
:1003900014FB00004506000070B50446856900683E
:1003A000C10601D5302600E02026C00707D070BD69
:1003B000D4E9012130469047206A401C20626D1E1E
:1003C000F6D570BD70B5044685690078C00707D1C1
:1003D00070BDD4E9012120209047206A401C206292
:1003E0006D1EF6D570BD00002DE9F05F894604460C
:1003F0004FF0000ADFF824B1FB44C0F820A02046EB
:10040000E168884700287DD0252806D0D4E901215D
:100410009047206A401C2062F1E700255F46204695
:10042000E16888472028064607DB312E05D2B81937
:1004300010F8200C08B10543F1E7A80701D525F015
:100440000405C4F81CA00027C4F818A02A2E09D05F
:10045000304602F069FD38B304EB8708303EC8F837
:10046000186019E059F8041B204604EB87029161DB
:10047000E1688847012F064618D1E069002820DA94
:1004800025F020051DE0D8F8180000EB800006EBF1
:1004900040003038C8F818002046E1688847064612
:1004A00002F042FD0028EED1012F0AD02E2E08D1F5
:1004B0002046E16888477F1C0646022F45F020054C
:1004C000C4DBA069002803DA404245F00105A061C1
:1004D000E80701D025F01005A6B1A6F141001928C2
:1004E00002D8203645F400654A463146204625604C
:1004F0004D46FFF783FE60B1012807D0ED1D25F0C2
:10050000070000E007E000F1080978E705F10409B9
:1005100075E730467AE7206ABDE8F09FFE2E0000BE
:100520004FF0000200B5134694469646203922BF8C
:10053000A0E80C50A0E80C50B1F12001BFF4F7AFD7
:10054000090728BFA0E80C5048BF0CC05DF804EBB9
:10055000890028BF40F8042B08BF704748BF20F827
:10056000022B11F0804F18BF00F8012B7047704725
:10057000704770472DE9FF4F0C461E464FF0FF377E
:100580008BB0D2E90001DDF860800A908A46C1F3A1
:100590000A5505B93D46002108464FF00000BAF162
:1005A000000F00F4400005DA00EB80004FF440013A
:1005B00001EA50004FEA9059B9F1010F00DDB94648
:1005C0000A9850EA4A000ED044F61050A5F2FF35C2
:1005D00045432F14B8F1000F1ED07542291E1EDDB1
:1005E000C9F100021CE0B8F1010F4FF0000001D08A
:1005F000302103E0F24305E02154401CB042FBDB14
:1006000030460022002121540B99C1F80880C1E92D
:1006100000200FB0BDE8F08FBD1B6D1CDEE74A4621
:1006200000DA694206A800F05BFA06AB93E807001F
:1006300003AB83E8070050460A9902F095F88DE86D
:100640000700A0F500501F3800900398002D0ADD28
:1006500042F21F014A460844002303A9039068465A
:1006600002F0FEFA09E0A0F500504A461F380023C8
:1006700003A90390684602F008FB8DE80700000418
:10068000000C03D04FF0FF30410800E01046B8F1F5
:10069000000F03D00022009215461EE0751E05D4FF
:1006A00000F098F9303262556D1EF9D5B34601223B
:1006B000084302D000227F1C04E02078302801D1BA
:1006C00000227F1E002A099784D01DE0112D07DA31
:1006D00000F080F9303262556D1C50EA0102F5D10C
:1006E000084302D00098C8B10EE00021681E05E062
:1006F000235C625C63542254401E491C8142F7DB38
:10070000AB46A81B401E0990002004F80B000B9874
:10071000099AC0F80880C0E9002B7AE711264FF04B
:10072000000857E72DE9F04F88460446D21D22F015
:10073000070191B0D1E90001CDE90A0102F0DCFB2B
:1007400002460B98C00F01D02D2007E020688107DA
:1007500001D52B2002E0202101EAC000032A0990E4
:1007600001D0072A05DB03464146204600F078F910
:100770000BE12078800601D5E06900E00620B8F1A1
:10078000650F814606D0B8F1660F18D0B8F1670F33
:1007900070D131E00020B9F1110F009001DB11237D
:1007A00001E009F101030AAA01A90CA8FFF7E2FE82
:1007B000DDE90C70002609F10105834647E00120C0
:1007C0004B4600904FF000470AAA01A90CA8FFF77A
:1007D000D1FEDDE90DB00C995D46002610B909F196
:1007E00001000D18B9EB050003D4C0F1FF3609F183
:1007F0000105A5EB09002BE0B9F1010F01DA4FF07B
:1008000001090020B9F1110F0090484601DD1123C4
:1008100000E003460AAA01A90CA8FFF7ABFEDDE938
:100820000C704D4600268346207800070AD4AB455D
:1008300000DA5D4601A8012D04DD411911F8011C03
:10084000302907D04F4502DA17F1040F04DA0120EE
:1008500082460FE06D1EEEE7002F02DCED1B3E44EA
:1008600003E0781CA84200DD7D1CB81B00F1010AE2
:100870004FF000472078000703D4AA4501DB4FF072
:10088000FF3A0021B7F1004F0DF143088DF84310F6
:1008900024D002202B23002F01DA7F422D230A21AE
:1008A000021EA0F1010000DC5FB197FBF1FC97FB99
:1008B000F1F201FB1C7C17460CF1300C08F801CD5D
:1008C000EEE7A8F1010003702188090501D5452153
:1008D00000E06521A0F1010800F8011C09980FA9AA
:1008E000A1EB0807FF1D00B10120411901EBEA70DF
:1008F000A1693844081A401EA0612078C00602D4BD
:100900002046FFF749FD099828B1D4E90121904715
:10091000206A401C20622078C00622D52046FFF7BE
:100920003BFD1EE0002E04DBB34502DD01A8805D27
:1009300000E03020D4E901219047206A401C206269
:10094000761CAAF101005FEA000A0AD100F03EF825
:10095000C0680168405CD4E901219047206A401CCE
:100960002062281EA5F10105DCDC07E0D4E90121A5
:1009700018F8010B9047206A401C2062381EA7F12E
:100980000107F3DC2046FFF71DFD032011B041E60F
:1009900001694A1C02610878704700B58FB0CDE943
:1009A00001310021059105497944CDE90310114633
:1009B0006846FFF719FD0FB000BD0000E5FFFFFF1F
:1009C0000A6802F8010B0A6070470000004870478F
:1009D0006000002030B5B0F10A0271F100034FEA67
:1009E000900E4EEA817EB0EB0E0061EB91014FEA72
:1009F000101E4EEA017E10EB0E0041EB11114FEA82
:100A0000102E4EEA016E10EB0E0041EB11214FEA61
:100A1000104E4EEA014E10EB0E0041EB1141401812
:100A200041F100014FEAD00040EA41704FEAD101A4
:100A30004FEA810444EA907410EB800544EB010412
:100A40006D1944EB0404521BA3414FF0000348BF4F
:100A50000A3200D530BD401C41F1000130BD00001C
:100A60002DE9F0411F46044603260168072A01F4D8
:100A7000006004DB08B116A505E016A503E008B187
:100A800015A500E015A521F010002060A069C01E8A
:100A9000A0610FB1401EA0612046FFF77DFC4FB161
:100AA000D4E9012138469047206A401C2062C01CCE
:100AB000206206E0206AFAE7D4E9012115F8010B6B
:100AC0009047761EF8D22046FFF77CFCBDE8F08107
:100AD0004E414E006E616E00494E4600696E6600E2
:100AE0002DE9F047814616468AB0354878440DC84E
:100AF0008DE80D0032487844801C03AC0DC884E8B2
:100B00000D0041F69B300844372190FBF1F290FB39
:100B1000F1F5A5F1800501FB12041B3C02D56442EE
:100B2000012000E00020DFF898A080460027FA446A
:100B3000AAF1BE0A0EE0E0070AD03246684607EB8B
:100B4000470101230AEB810102F09FF88DE80700BD
:100B500064107F1C002CEED1194F7F44AE3F19E08A
:100B6000E80715D007EB04100DF1180A90E80E0005
:100B70008AE80E00C068F04201D198190890324608
:100B8000012306A903A802F080F803AB83E807005D
:100B90006D10641C002DE3D14FF00103324669460D
:100BA000B8F1000F03A802D002F05AF801E002F0F9
:100BB0006CF8C9E90001C9F808200AB0BDE8F0875F
:100BC0009828000000487047400000207546FFF755
:100BD000F9FFAE4605006946534620F007008546FA
:100BE00018B020B5FFF73AFBBDE820404FF00006F3
:100BF0004FF000074FF000084FF0000BAC46ACE898
:100C0000C009ACE8C009ACE8C009ACE8C00921F0F3
:100C100007018D46704710B50446AFF300802046AB
:100C2000BDE81040FFF706BB30B44FF0013C50F870
:100C3000042B51F8043BCCFA52F4D51A20D1FCB95C
:100C400050F8042B51F8043BCCFA52F4D51A17D1C2
:100C5000B4B950F8042B51F8043BCCFA52F4D51A2D
:100C60000ED16CB950F8042B51F8043BCCFA52F475
:100C7000D51A05D1002CDAD030BC4FF000007047F7
:100C800029BAB1FA81F111F01801D1F120008440A4
:100C9000F2D1CA40CB4012F0FF0213F0FF0330BC88
:100CA000D01A704701491820ABBEFEE726000200AB
:100CB000704700000000000010B582B040F2A404AC
:100CC000C2F200044FF0FF3C502122460423CDF82D
:100CD00000C000F0EBF940F26111C2F200010870AF
:100CE00018B1B7EE000A02B010BD218840F26212BE
:100CF000C8BA09BA090CC2F20002118002F063F905
:100D00009FED050B53EC102B02F074F902F02AF959
:100D100000EE100A02B010BD000000000000443FC9
:100D2000FEE7000070470000B0B5044600F0ECF8A4
:100D3000054640F23400C2F200000078611C18BF82
:100D4000044400BF00F0E0F8401BA042FAD3B0BD5D
:100D50002DE9F04F82B000F13E4241F6004502F12C
:100D6000FF77C4F2020508224FEAB726A84208BF5F
:100D70000722072E38BF4FEAB7224FF0010E00249A
:100D800000274FF00009009209E000BF09F10109B6
:100D90000437B9F1100F04F1020400F0A4800A68CE
:100DA0000EFA09FC12EA0C08F0D0D1F804B00BF0EE
:100DB000030AAAF10102012A14D882680323CE682B
:100DC00003FA04FE22EA0E02A64032438260426821
:100DD000CBF3001622EA0C0206FA09F64FF0010ED8
:100DE00032434260BAF1030F1DD0C26803238D68FD
:100DF00003FA04F6B24305FA04F63243BAF1020FDD
:100E0000C26010D16FF0030202EA59020244D2F824
:100E100020C007F01C050F230E69AB402CEA03032A
:100E2000AE4033431362026803234E68A3409A43E3
:100E300006F00303A3401A4316F4403F0260A5D016
:100E4000002243F644030192C4F202031A6843F6F7
:100E5000004C42F480421A601A68C4F2010C02F499
:100E600080420192019A29F003024FF6084A624437
:100E7000CFF6FF7A52F80A3007F00C060F25B5407E
:100E8000AB43009D05FA06F6334342F80A30DCF81E
:100E900000204B6842EA0806DD0358BF22EA080634
:100EA000CCF80060DCF804209D0342EA080658BF35
:100EB00022EA0806CCF80460DCF80820DD0242EAE9
:100EC000080643F60C4558BF22EA0806CCF808602D
:100ED000C4F201052A689B0242EA080658BF22EACA
:100EE00008062E6052E702B0BDE8F08F426902EAC0
:100EF0000103914341EA034181617047002A08BF21
:100F0000090481617047000040F26410C2F20000E1
:100F100000687047F0B581B0B0B3044690F83D006A
:100F200028B9002084F83C00204600F01FFD242052
:100F300084F83D002068016821F00101016001682A
:100F400041F400410160016821F40041016000F0BA
:100F5000F7FE48F28041C0F21E0140F600126568BB
:100F600088424FF00001C0F23D0248F2A16C4FF000
:100F7000000338BF01219042C0F2010C38BF0123A9
:100F8000654538BF0B4613B1012001B0F0BD4DF6E9
:100F90008361C4F21B31A0FB011221684FEA924E1B
:100FA0004B684FF4967623F03F0343EA92434B603D
:100FB00044F6D3530F6A0EFB06F6C1F26203A6FB9A
:100FC000033627F03F03B709654538BF970C7A1CF5
:100FD0001A430A62CA6948F2A0674CF6FF73C0F26E
:100FE0000107BD4222EA030C0AD801386A00B0FBAF
:100FF000F2F001306FF31F30042898BF04202BE07B
:10100000A368A0F1010E9BB119206843BEFBF0F06C
:101010000422013062F31F30000512D09BB1192069
:101020006843BEFBF0F00422013062F31F3011E090
:1010300005EB4500BEFBF0F001306FF31F300005FB
:10104000ECD1012008E005EB4500BEFBF0F00130DB
:101050006FF31F3040F4004040EA0C00C86108689C
:10106000D4E9072320F0C0001043184308608868C3
:1010700048F2FF3204F10C0790438CCF1843104321
:10108000A6698860C86820F0FF0038433043C86014
:10109000086840F00100086000202021206484F8E6
:1010A0003D10206384F83E0001B0F0BD2DE9F04F03
:1010B00081B09A46164688460446FFF725FF94F805
:1010C0003D1020291ED1DDF8289005462068806952
:1010D00010F0020712D0FFF717FF401B1A28F5D3B4
:1010E00000202021206384F83D1084F83E00216C0C
:1010F00041F02001216484F83C001FB994F83C00C1
:10110000012803D1022001B0BDE8F08F0121206841
:1011100084F83C100168C90703D1016841F001015E
:101120000160016821F400610160222184F83D1012
:10113000102184F83E10002121646662A4F82AA0E0
:10114000618D21850021CFF6FF71E162E16A0268BD
:1011500011F5803F42F48062026018BF012960D11E
:10116000016841F480710160406910F001002DD1E7
:1011700080F0010609F1010707E000BF206840691F
:1011800010F0010080F0010620D1002FF6D0FFF70B
:10119000BBFEB9F1000F02D0401B4845EED900203C
:1011A0002021206384F83D1084F83E00216C41F03A
:1011B00020012164F10784F83C0007D02068006812
:1011C000C00544BF4FF400702064F9E12069B0F518
:1011D000804F03D148F00100C1B280E0062000EA50
:1011E000D81A20680AF1F0010161416909071ED48B
:1011F0004169490500F1908009F101074FB1FFF7FE
:1012000083FEB9F1000F00F0B781401B484500F2A2
:10121000B38120684169090709D441694905EDD5C1
:101220007AE008299CD0216B112999D09CE720688D
:101230005FFA88F101614169890717D4416949055D
:101240006AD409F101074FB1FFF75EFEB9F1000F53
:1012500000F09281401B484500F28E812068416970
:10126000890703D441694905EDD555E00020009078
:10127000206841690091816900910099016841F4F9
:1012800080710160406910F0010026D180F00107F3
:1012900009F1010607E000BF2068406910F0010075
:1012A00080F0010719D1002EF6D0FFF72DFEB9F11D
:1012B000000F02D0401B4845EED9002020212063BA
:1012C00084F83D1084F83E00216C41F02001216437
:1012D000F90784F83C007FF471AF4AF0F10120680F
:1012E00001614169890729D44169490514D409F18B
:1012F000010600BF4EB1FFF707FEB9F1000F00F085
:101300003B81401B484500F23781206841698907CD
:1013100014D441694905EDD5016841F400710160BB
:101320006FF48061416100202021206384F83D102A
:1013300084F83E00216C41F004013EE1208D02283A
:1013400006D001280DD0E8B90020009020680FE0F9
:101350002068016821F480610160016841F4006146
:1013600014E02068016821F480610160002100918F
:1013700041690091816900910099016841F400710F
:1013800001600BE02068016841F480610160002188
:10139000009141690091806900900098208D00289B
:1013A00000F0F5804FF0010B09F101074FF0000844
:1013B0004FF0200A042817D202283CD0012854D12B
:1013C00020684169490600F1D2804169C90600F1EF
:1013D000E980FFF799FDB9F1000F00F0CD80401BC7
:1013E0004845EDD9C8E000BF2068416949060DD4E1
:1013F0004169C90600F1D680FFF786FDB9F1000FFB
:1014000000F0BA80401B4845EED9B5E02068616A1B
:1014100000690870606A228D0130013A606222859D
:101420002168628D013A62854A69520740F19A80CB
:10143000096901708DE02068406910F0040074D1E2
:101440008BEA900606E02068406910F004008BEA01
:1014500090066AD1002FF6D0FFF756FDB9F1000FC4
:1014600055D0401B4845EED951E02068406910F046
:10147000040022D18BEA900606E02068406910F053
:1014800004008BEA900618D1002FF6D0FFF73CFD40
:10149000B9F1000F02D0401B4845EED9C4F83080A6
:1014A00084F83DA084F83E80206C40F02000206449
:1014B000F00784F83C8040F083802068616A02680D
:1014C00022F48062026000690870606A216801305D
:1014D0006062208D01382085608D01386085486903
:1014E00010F0040021D18BEA900606E020684069E4
:1014F00010F004008BEA900617D1002FF6D0FFF70A
:1015000003FDB9F1000F02D0401B4845EED9C4F8E5
:10151000308084F83DA084F83E80206C40F02000AC
:101520002064F00784F83C804AD12068616A026830
:1015300042F40072026000690870606A2268411C0F
:101540006162218D01392185618D013961851169C2
:101550004170606A218D01306062481E2085608D77
:1015600001386085208D00287FF424AF0FE02068CB
:10157000616A00690870ECE700202021206384F88C
:101580003D1084F83E00216C41F0200115E0202040
:1015900084F83D00002084F83E0084F83C0001B04F
:1015A000BDE8F08F6FF01001416100202021206321
:1015B00084F83D1084F83E00216C216484F83C00DE
:1015C000012001B0BDE8F08F2DE9F04782B09A46C6
:1015D000164688460446FFF797FC94F83D102029EC
:1015E00021D1DDF8289005462068806910F00207B7
:1015F00013D0FFF789FC401B1A28F5D300202021C7
:10160000206384F83D1084F83E00216C002F41F0E7
:101610002001216484F83C006DD194F83C0001283D
:1016200006D1022600E00226304602B0BDE8F0876F
:101630000121206884F83C100168C90703D10168C2
:1016400041F001010160016821F400610160212184
:1016500084F83D10102184F83E1000212164666258
:10166000A4F82AA0618D21850021CFF6FF71E162E7
:10167000E16A11F5803F18BF012975D1016841F475
:1016800080710160406910F001002ED180F00106E8
:1016900009F1010707E000BF2068406910F0010070
:1016A00080F0010621D1002FF6D0FFF72DFCB9F113
:1016B000000F02D0401B4845EED9002020212063B6
:1016C00084F83D1084F83E00216C41F02001216433
:1016D000F10784F83C0008D0206801260068C005A6
:1016E00044BF4FF4007020649EE72069B0F5804F3E
:1016F00003D1FE2141E0022696E7062000EAD81138
:101700002068F03101614169090735D44169490513
:1017100014D409F1010600BF4EB1FFF7F5FBB9F192
:10172000000F00F01381401B484500F20F81206834
:101730004169090720D441694905EDD501680126B1
:1017400041F4007101606FF480614161002020214B
:10175000206384F83D1084F83E00216C41F00401C0
:10176000216484F83C005FE708293FF487AF216BD0
:1017700012293FF483AF85E7FF21206801EA0801C1
:101780000161416989072DD44169490514D409F1E2
:10179000010600BF4EB1FFF7B7FBB9F1000F00F033
:1017A000C680401B484500F2C28020684169890715
:1017B00018D441694905EDD50168012641F400714D
:1017C00001606FF48061416100202021206384F872
:1017D0003D1084F83E00216C41F00401216484F83E
:1017E0003C0021E70026019620684169019180694B
:1017F00001900198208D002854D009F1010700BF05
:10180000206850F8141F09060FD40168490556D402
:10181000002FF5D0FFF778FBB9F1000F4FF0200152
:1018200051D0401B4845EBD94DE0D4F824E0226864
:10183000704610F8013B13616062608D013860856D
:10184000B4F828C01046ACF10103238550F8141FEA
:1018500049070DD519040BD09EF8011011610EF146
:1018600002016162618D01396185ACF1020121855E
:10187000016802E0206850F8141F49070FD401687E
:10188000490538D4002FF5D0FFF73EFBB9F1000F22
:101890004FF0200133D0401B4845EBD92FE0208D7D
:1018A0000028ADD12068016841F40071016020205A
:1018B00084F83D0084F83E6084F83C60B4E66FF440
:1018C00080610160042100202022206384F83D20F3
:1018D00084F83E00226C1143216484F83C00206CA3
:1018E000042806D120680126016841F400710160D6
:1018F0009AE6012698E66FF48061016004210020D9
:101900002022206384F83D2084F83E00226C11439D
:10191000216484F83C00206C042806D1206801264C
:10192000016841F4007101607EE601267CE600203A
:101930002021206384F83D1084F83E00216C0126AC
:1019400041F02001216484F83C006DE60020202154
:10195000206384F83D1084F83E00216C012641F09C
:101960002001216484F83C005EE600002DE9F04788
:1019700086B0006845F60041C4F2000100268842A6
:10198000CDE90466CDE90266019632D045F2004108
:10199000C4F20001884271D1002443F6300500945E
:1019A000C4F20205286801A940F0020028602868F6
:1019B00000F00200009000984FF440700190122057
:1019C000CDE90204042005900020C4F2020000F5D5
:1019D00080600494FFF7BCF90094286940F400107B
:1019E0002861286900F400100090009806B0BDE856
:1019F000F08743F630070096C4F2020738680024E7
:101A000040F0040038603868C4F2020400F00400BA
:101A1000009000980096386801AD40F001003860F1
:101A200038684FF0120800F00100009000984FF461
:101A3000007001904FF003094FF0040A04F50060B4
:101A40002946CDE90286CDF81090CDF814A0FFF715
:101A50007FF94FF48070CDE9010803A880E84006C3
:101A600020462946FFF774F90096386940F40000D3
:101A70003861386900F400000090009806B0BDE8B5
:101A8000F087000040F2340040F26411C2F200001E
:101A9000C2F2000100780A68104408607047000034
:101AA00080B543F60040C4F20200016841F40071C1
:101AB0000160016841F480610160016841F4807156
:101AC0000160032000F07CF8002000F005F800F031
:101AD0002BF8002080BD0000B0B540F23402C2F205
:101AE000000240F200011278C2F200014FF47A7352
:101AF0000968B3FBF2F20446B1FBF2F1084600F0CC
:101B00000DFB0F2C4FF001050CD858B94FF0FF30EA
:101B100021460022002500F027F840F23800C2F2EA
:101B2000000004602846B0BD80B582B0002043F6B6
:101B300040010190C4F202014A6842F480424A60C6
:101B40004A6802F480420192019A0090086840F0CD
:101B500080500860086800F08050009000980720CE
:101B600000F02EF802B080BD10B54EF60C5CCEF23F
:101B7000000CDCF80030C3F3022E8EF00704042CB6
:101B800028BF0424BEF103034FF0FF3E0EFA04F415
:101B900038BF0023A14399400EFA03F39A4300F0A3
:101BA0000F03043B1143634409010C3300F160420D
:101BB000B0F1FF3FC8BF02F56443197010BD0000CB
:101BC0004EF60C51CEF200010A684FF6FF031A40A0
:101BD00060F30A2242F0806040F0FD7008607047B8
:101BE0002DE9F041002800F08B8043F60808C4F28C
:101BF00002080446D8F8F8030D4600F007008842B2
:101C000007D288F8F853D8F8F80300F00700A84284
:101C100076D12068810717D5410705D5D8F800107F
:101C200041F4E051C8F80010010705D5D8F80010BC
:101C300041F46041C8F80010D8F80010A26821F003
:101C4000F0011143C8F80010C0073FD1D8F8F803DD
:101C500000F00700A84207D988F8F853D8F8F8032D
:101C600000F00700A8424BD12068410707D5D8F8FB
:101C70000010E26821F4E0511143C8F80010000799
:101C800008D5D8F80000216920F4604040EAC1007E
:101C9000C8F8000000F068F8D8F8001043F2A0324D
:101CA000C1F30311C0F60002515C40F2000220FAB9
:101CB00001F140F23800C2F200000068C2F20002F6
:101CC0001160FFF709FF0020BDE8F0816068811E08
:101CD000022907D258F8081C89015CBF0120BDE821
:101CE000F08110E0012807D158F8081C89035CBF77
:101CF0000120BDE8F08106E058F8081C890702D4ED
:101D00000120BDE8F081D8F8001021F0030108435C
:101D1000C8F80000FFF7F8F8064641F2883700BF20
:101D2000D8F80000616800F00C00B0EB810F8DD096
:101D3000FFF7EAF8801BB842F2D90320BDE8F08132
:101D400040F2000043F60801C2F20000C4F20201B2
:101D50000068096843F2B032C1F38221C0F6000284
:101D6000515CC8407047000010B543F60404C4F24B
:101D70000204606800F00C0142F200400829C0F241
:101D8000F40007D0042918BF10BD41F20020C0F2B2
:101D90007A0010BD216801F03F02216823684902E2
:101DA000C3F3881105D4A1FB00010023FEF768FAF4
:101DB00006E041F20020C0F27A004843B0FBF2F0A6
:101DC00021680222C1F3014102EB4101B0FBF1F0B5
:101DD00010BD00002DE9F04182B0002800F0A28083
:101DE0000446007843F60006C007C4F2020643D05A
:101DF000B06800F00C00042805D1306880033BD5A2
:101E00006068C8BB8EE0B06800F00C00082802D102
:101E100070684002F1D46568B5F5A02F0AD0B5F519
:101E2000803F0BD0306820F480303060306820F480
:101E3000802006E0306840F480203060306840F454
:101E400080303060FFF760F8002D054611D000BFEC
:101E50003068800310D4FFF757F8401B6428F7D987
:101E600022E100BFFFF750F8401B64284FF0030049
:101E700055D830688003F5D4207880071AD5B0682B
:101E800010F00C0F09D0B06800F00C00082840F0EA
:101E90008A807068400200F186803068800702D531
:101EA000E06801283ED13068216920F0F80040EA5E
:101EB000C10030602078000738D4207840074CD427
:101EC000A5695DB3B06800F00C00082840F09E8062
:101ED000012D27D07068E16900F480028A4221D187
:101EE000216A00F03F028A421CD147F6C071626A43
:101EF0000140B1EB821F15D1A26A0023CFF6FF7318
:101F000003EBC23200F440316FF30F02914209D16A
:101F1000E16A00F07060B0EB016F03D1002002B005
:101F2000BDE8F081012002B0BDE8F08160690028C1
:101F300040F20000C4F2472057D00121C0F8801EB3
:101F4000FEF7E2FF054600BF706F8007B5D4FEF7CD
:101F5000DBFF401B0228F7D9A6E0306C10F0805858
:101F60000AD100200190306C40F080503064306C19
:101F700000F080500190019847F20007C4F200077A
:101F80003868C00524D4386840F480703860FEF7A3
:101F9000BBFF05463868C0051AD4FEF7B5FF401BE5
:101FA0000228F7D980E0E068002851D00020C4F270
:101FB000472001210160FEF7A7FF05463068800732
:101FC0003FF571AFFEF7A0FF401B0228F6D96BE08A
:101FD000A568052D50D0012D52D0306F20F00100A2
:101FE0003067306F20F004004DE00021C0F8801E03
:101FF000FEF78AFF054600BF706F80077FF55DAF73
:10200000FEF782FF401B0228F6D94DE00027C4F2FC
:10201000472700203866FEF777FF022D05460BD1D3
:102020003068800158D5FEF76FFF401B02284FF043
:102030000300F5D973E700BF306880017FF56EAF0C
:10204000FEF762FF401B02284FF00300F4D966E759
:102050000020C4F2472000210160FEF755FF05462D
:10206000306880077FF526AFFEF74EFF401B022841
:102070004FF00300F4D952E7306F40F004003067AE
:10208000306F40F001003067FEF73EFF002D05463F
:1020900041F2883714D000BF306F800713D4FEF7A9
:1020A00033FF401BB842F7D9032002B0BDE8F081EE
:1020B000FEF72AFF401BB8424FF003003FF62FAF58
:1020C000306F8007F4D4B8F1000F7FF4F9AE306CB4
:1020D00020F080503064F3E604F11C052FCD084356
:1020E0000021CFF6FF7140EA821001EBC3316FF39C
:1020F0000F0140EA05600843706001203866FEF772
:1021000003FF0446306880013FF508AFFEF7FCFE90
:10211000001B02284FF00300F4D900E7411E002005
:10212000B0EB116F1CBF012070474EF21002CEF2CF
:10213000000251604EF62351CEF20001F0230B70E5
:102140000721906011607047FEE70000FEE7000085
:10215000FEE70000704700007047000080B5FFF701
:1021600091FC80BD70B592B006AC20463021FEF7E0
:10217000D7F9002543F640000595CDE90355CDE993
:1021800001550095C4F202000168022641F0805119
:102190000160006800F080500090009847F2000055
:1021A0000095C4F20000016841F4804101600068BC
:1021B00000F48040009000980120099010200A90BF
:1021C00008200E9032200F900420109007201190CC
:1021D00020460696CDE90C65FFF7FCFD18B1EFF33C
:1021E000108072B6FEE70F20CDE901064FF4A05033
:1021F00004904FF48050059001A800210395FFF74B
:10220000EFFC20B1EFF3108072B600BFFEE712B012
:1022100070BD00004EF68850CEF20000016841F417
:102220007001016070470000FEE7000070B584B0E7
:1022300048F68C0040F2FC04C0F60C00C2F2000428
:102240000290642602AA20464E2104230096FFF73E
:10225000BBF943F2B835C0F60005284600F07EF819
:102260004CF6CC00C0F60C00039003AA20464E2189
:1022700004230096FFF7A8F9284600F06FF804B091
:1022800070BD00002DE9F04182B040F60C0040F234
:10229000FC04C2F62C00C2F200040DF10408019007
:1022A000642620464E21424604230096FFF78CF90F
:1022B00042F62C00C8F68C00019001AA20464E215F
:1022C00004230096FFF780F940F60C00CCF6CC0012
:1022D000019001AA20464E2104230096FFF774F9CD
:1022E00048F68C00C0F60C00019001AA20464E2151
:1022F00004230096FFF768F944F64C00C0F60C0082
:10230000019001AA20464E2104230096FFF75CF9B4
:1023100040F204054FF0FF37C2F20005E81940789B
:10232000042320F00F01000101F10D0209318DF8A5
:10233000051000F10D0109308DF804208DF806100C
:102340008DF8070020464E2142460096FFF73CF9E3
:1023500001372F2FE2D102B0BDE8F0812DE9F04125
:1023600082B004460078E0B340F2FC0542F62D1836
:102370006427C2F2000501AEC5F65D1819E000BF82
:1023800020F00F01000101F10D0209318DF8051057
:1023900000F10D0109308DF804208DF806108DF83C
:1023A000070028464E21324604230097FFF70CF918
:1023B00001342078252803D080B300F0F001E1E754
:1023C00014F8010F3038C1B20A29D9D928464E2154
:1023D00032460423CDF804800097FFF7F5F8207803
:1023E000CEE748F68C0040F2FC04C2F62C00C2F2A4
:1023F00000040190642501AA20464E210423009583
:10240000FFF7E2F842F62D10C0F60D10019001AA78
:1024100020464E2104230095FFF7D6F802B0BDE810
:10242000F081000010B582B00F29044622D8012A9D
:1024300008BF41F0400101F07000090100F18C0279
:1024400088308DF8050001F10C008DF8060001F1CF
:1024500008008DF8070040F2FC008DF804204FF0D2
:10246000640CC2F2000001AA4E210423CDF800C082
:10247000FFF7AAF82046FFF771FF02B010BD000079
:1024800088B00027C4F20207FFF70AFBFFF76AFED5
:10249000002543F630000795CDE90555CDE90355F4
:1024A0000295C4F20200016807F5805641F0100160
:1024B00001600168002201F0100102910299029569
:1024C00001684FF0080941F004010160016801F062
:1024D0000401029102990295016841F080010160B6
:1024E000016801F08001029102990295016841F0B2
:1024F00001010160016801F0010102910299029558
:10250000016841F002010160016801F002010291DD
:1025100002990295016841F00801016000680821F4
:1025200000F008000290029830460196FEF7E6FCA3
:1025300007F5006B5846012101220124FEF7DEFC5D
:1025400007F5406840464FF210010022FEF7D6FC26
:1025500003AF30463946CDE90394CDE90555FEF782
:10256000F7FB0120CDE90300584639460124CDE9A7
:102570000555FEF7EDFBCDF80C904FF0020A4FF039
:10258000050958463946CDE904A50695CDF81C90B5
:10259000FEF7DEFB039400244FF48810C4F202041B
:1025A000CDE9040520463946FEF7D2FB1020CDE9DF
:1025B000030A0620079020463946CDE90555FEF767
:1025C000C7FBE020CDE9030A20463946CDE9055591
:1025D000CDF81C90FEF7BCFB042004F58066CDE925
:1025E0000305304639460595FEF7B2FB4FF480608F
:1025F000CDE9030A304648F2A0663946CDE90555D3
:10260000CDF81C90C0F20106FEF7A2FB4FF21000BD
:1026100003900120CDE90405404639460695FEF7B2
:1026200097FB4FF4A450CDE9030A062007905846C3
:102630003946CDE90555FEF78BFB4FF40070CDE927
:102640000305204639460595FEF782FB4FF4E0501E
:10265000CDE9030A0A20079020463946CDE9055501
:10266000FEF776FB2020CDE9030540463946059567
:10267000FEF76EFB4FF49010CDE904050198394642
:10268000CDF80CA02746FEF763FB40F2A800A4F5A6
:10269000D631C2F200004FF48044C0E90016C0E910
:1026A0000255C0E90445C0E906550562FEF732FC53
:1026B00018B1EFF3108072B6FEE740F2FC00A7F508
:1026C000D231C2F20000C0E90016C0E90255C0E9EB
:1026D0000445C0E906550562FEF71CFC18B1EFF38E
:1026E000108072B6FEE7FFF7CDFDFFF79FFD18A043
:1026F00000210222FFF796FE40F2A80540F2A00456
:1027000040F25016C2F20005C2F20004C2F2000606
:1027100013A700BF2846FEF7CFFA10EE100A84ED8B
:10272000000A00F065FD02460B4630463946FDF7CB
:102730001FFE304600210122FFF774FE4FF47A702D
:10274000FEF7F2FA40464FF40051FEF7CFFBE1E707
:10275000536C656769732062617261697300000080
:102760002530322E313246005FEA400C08BF91F02E
:10277000000F4FEA8C234FEAC12243EA51514FEA3E
:102780001C5018BF00F5F0404FEA300018BF41F070
:1027900000415FEA6C5C00F02980BCF1FF3F08BF9C
:1027A00040F080407047130C06BF12044FF0100C2D
:1027B0004FF0000C130E04BF12020CF1080C130FA3
:1027C00004BF12010CF1040C930F04BF92000CF132
:1027D000020CD30F04BF52000CF1010C11464FF054
:1027E0000002A0F11F00A0EB0C00704711F0004F99
:1027F00008BF704731F000413FF4D5AF0B0C06BF66
:1028000009044FF0100C4FF0000C0B0E04BF09022E
:102810000CF1080C0B0F04BF09010CF1040C8B0F19
:1028200004BF89000CF1020CCB0F04BF49000CF16E
:10283000010CCCF1200322FA03F341EA030102FA6E
:102840000CF2A0EB0C0000F10100704723F07F4771
:1028500020F07F4C80EA030000F00040ACEB07035F
:1028600003F57C5303F1FF032DE9804909B44FEAD6
:10287000144324EA03484FEA154B25EA0B4E0FF2A6
:10288000042606EB13273E7803FB0667C7F500070F
:1028900007FB06F64FEAD64606F102064FEA543722
:1028A00007FB066CCCF1005C4FEA1C472CEA074C96
:1028B0000CFB06F507FB06F404EB15464FEA9616EB
:1028C00049085FEA320234BF00204FF000404FEA6F
:1028D000D13706FB07FC4FEA1C4C0CFB0BF7D21B55
:1028E00003FB0CF761EB07010CFB0EF7B0EB0740A5
:1028F00072EB17420CFB08F734BFA2EB0742B2EBB6
:10290000074261EB17414FEA0C444FEA910706FB7F
:1029100007FC4FEA1C4C0CFB0BF7B0EBC74072EB0B
:10292000573203FB0CF734BFA2EBC742B2EBC742EE
:1029300061EB57310CFB0EF7B0EBC70072EB57722F
:102940000CFB08F734BFA2EBC702B2EBC70261EB86
:1029500057714FEA816141EA92114FEA826242EA7D
:1029600090124FEA806004EBCC04039F4FEAD1370A
:1029700006FB07FC4FEA1C4C0CFB0BF7D21B03FBBE
:102980000CF761EB07010CFB0EF7B0EB074072EBA5
:1029900017420CFB08F734BFA2EB0742B2EB074229
:1029A00061EB17414FEA8C5504EB9C244FEA9107E9
:1029B00006FB07FC4FEA1C4C0CFB0BF7B0EBC740C7
:1029C00072EB573203FB0CF734BFA2EBC742B2EBFA
:1029D000C74261EB57310CFB0EF7B0EBC70072EB4F
:1029E00057720CFB08F734BFA2EBC702B2EBC70269
:1029F00061EB57714FEA816141EA92114FEA8262BD
:102A000042EA90124FEA806015EB4C2544F1000435
:102A10004FEAD13706FB07FC4FEA1C4C0CFB0BF7C7
:102A2000D21B03FB0CF761EB07010CFB0EF7B0EBBD
:102A3000074072EB17420CFB08F734BFA2EB0742CA
:102A4000B2EB074261EB17414FEA813141EA924113
:102A50004FEA823242EA90424FEA80304FEA0C76E7
:102A600015EB1C1544F1000448EA03434EEA0B48F9
:102A70004FF0000EB2EB080C71EB030724BF624667
:102A800039464EEB0E0E4FF0000B001852414941F3
:102A90004BEB0B0BB2EB080C71EB03077BF1000B5C
:102AA00024BF624639464EEB0E0E4FF0000B001865
:102AB000524149414BEB0B0BB2EB080C71EB030796
:102AC0007BF1000B24BF624639464EEB0E0E51EAF5
:102AD000020718BF46F0010616EB0E7655F100020C
:102AE00054F1000103D5BDE88901BDE80088BDE8C7
:102AF0008901BDE80048B619524141EB0101A3F13B
:102B00000103704780807F7E7D7C7B7A7978777641
:102B100076757473727171706F6E6E6D6C6C6B6ABA
:102B20006A69686867666665646463636261616058
:102B3000605F5F5E5E5D5D5C5C5B5B5A5A595958D5
:102B4000585757565655555554545353525252513F
:102B5000515050504F4F4F4E4E4D4D4D4C4C4C4B95
:102B60004B4B4A4A4A4949494848484747474746DC
:102B70004646454545444444444343434342424218
:102B8000424141419C46002B30D477002BD04FEA84
:102B900037071CB503B44FF010004FF01001BAF125
:102BA000000F06D0BCF1000FDCBF40F0080040F081
:102BB00008014FF000000FBCBDE810400BF1010B05
:102BC000BBF1010F08BF5FEA170722BF12F1010234
:102BD00011F101014FF0004143F1000300F000400A
:102BE00043EA00007047F9D35708D0E746EA0646A3
:102BF0004FEA164613F1400F1FDD13F1200FDFBF20
:102C000016430A46002120335B42BED0C3F12007A1
:102C100046EA06464FEA164602FA07F746EA07066C
:102C200022FA03F2C3F1200701FA07F742EA07028A
:102C300021FA03F14FF00003A7E746EA020646EA4D
:102C400006464FEA164646EA0106BCBF46EA064675
:102C5000360C4FF000034FF000024FF0000194E7F4
:102C60002DE9804C70B49A46934691E8380007C825
:102C700031EA400C48BF34EA430C03D5FFF7E6FDC8
:102C8000FFF780FFF0BCBDE8008C2DE9804C70B4EC
:102C90009A46934691E8380007C810F0804F08BF65
:102CA00013F0804F03D100F005F8FFF76BFFF0BC85
:102CB000BDE8008C20F07F4723F07F4C80EA0300C2
:102CC00000F0004007EB0C03A3F57C53A3F1FE03D7
:102CD00092F0000F00F0B38095F0000F00F07780C5
:102CE0002DE901494FEA114021EA00484FEA144614
:102CF00024EA064700FB06FC08FB06F607FB08F87B
:102D000018EB06484CEB164C00FB07F718EB07488E
:102D10004CEB17404FEA124B22EA0B4E4FEA154696
:102D200025EA06470BFB06FC0EFB06F607FB0EFE2C
:102D30001EEB064E4CEB164C0BFB07F71EEB074E3B
:102D40004CEB174B18EB0B0840F1000018EB0E0B87
:102D500058EB000840F100008F1A4FF000014FF0CF
:102D600000063CBFC943661B14BFB5EB040C002131
:102D70003CBFC943F61B4FEA174427EA04454FEA14
:102D80001C472CEA074C04FB076205FB07F70CFB0A
:102D900005F616EB074642EB174204FB0CFC16EB5C
:102DA0000C4642EB1C421BEB060658EB020241416B
:102DB0004EEA8E0E46EA9E0601D5BDE80189B61997
:102DC000524141EB0101A3F10103BDE801894FEA42
:102DD000144524EA05464FEA114721EA074C05FB52
:102DE00007F406FB07F70CFB06F111EB074144EB78
:102DF000174405FB0CFC11EB0C4144EB1C444FEA5F
:102E0000124722EA074C05FB07F206FB07F70CFB0B
:102E100006F616EB074642EB174205FB0CFC16EBD9
:102E20000C4642EB1C456A1854F1000148BF70473C
:102E3000B619524141EB0101A3F10103704795F02E
:102E4000000F37D04FEA114221EA02464FEA1447F9
:102E500024EA074C02FB07F106FB07F70CFB06F41C
:102E600014EB074441EB174102FB0CFC14EB0C4440
:102E700041EB1C414FEA154725EA074C02FB07F5D9
:102E800006FB07F70CFB06F616EB074645EB174566
:102E900002FB0CFC16EB0C4645EB1C42121951F1DF
:102EA000000148BF7047B619524141EB0101A3F13F
:102EB000010370474FEA144524EA05464FEA1147DB
:102EC00021EA074C05FB07F106FB07F70CFB06F2AE
:102ED00012EB074241EB174105FB0CFC12EB0C42D5
:102EE00051EB1C414FF0000648BF7047921841EB70
:102EF0000101A3F10103704703B401984100009858
:102F000050EAC12018BF04204A0D18BF40F001004C
:102F100040F2FF72B2EB515F08BF40F0020001289F
:102F200008BF052002B0704730380A2801D20120BE
:102F3000704700207047000010B500290AD00878BB
:102F4000002807D005487844FDF76EFE002801D020
:102F5000002010BD0248784410BD0000A604000007
:102F60009E04000021F0004201F00043A2F16052F3
:102F7000B2F5801F28BFD2F17F6C0BD95FEA001C2D
:102F800043EAC20242EB507018BF704728BF20F0DE
:102F900001007047B2F5801FBCBF184670474FEA6A
:102FA000410C1CF5001F02D2084600F09FB970B515
:102FB00000F0CAF800000089FFF7F6BF4FF00040AC
:102FC000A0F58000704710F0004248BF4042B0FAC0
:102FD00080F310FA03F10AD0C3F11D0303F58063F7
:102FE00002EB03524FEA415002EBD12170474FF000
:102FF0000000704770B5DFF848C11CEA111E1EBF03
:103000001CEA13159EEA0C0F95EA0C0F00F06F8076
:1030100081EA03044EEAD47EAE4421EA4C1123EA4D
:103020004C1341F4801143F48013AEF17F7EA1FB79
:10303000024CA0FB0365361955EB0C05A1FB034CB4
:103040004CF10003A0FB021C16EB0C06654153F18A
:103050000003094218BF46F0010613F4007F0BD1AC
:103060004FEA03314FEA053041EA155140EA165064
:1030700034036FF003020AE04FEAC3214FEAC52090
:1030800041EA555140EA5650F4026FF0020202EB59
:103090002E4201EB025585EACE710AD05FEA440C5C
:1030A00018BF24F0004450F1000041F1000120EA73
:1030B000D47040F2FE7C624500D270BDA84214BFBD
:1030C0004FF080444FF04044002E08BF0024BEF172
:1030D000806FA8BFA1F1C041BDE8704080F282803E
:1030E00001F1C04101F000414FF0000070470CEACF
:1030F00013159EEA0C0F18BF95EA0C0F06D081EA53
:10310000030E4FF000000EF0004170BD00F01CF8FF
:103110008900013E00F007B800F009B84FEA430CFF
:103120005FEA5C5C08D081EA030100F05BB84FEA1B
:10313000410C5FEA5C5CF6D102494FF00000704739
:103140000000FF070000F87F0EF1020E2EF0030EC4
:103150005EF8046B364205D4012A43EB030515F5EE
:10316000001F12D8012841EB010C1CF5001F0CD8E0
:103170000ED14FEAD17C0CEB4C0C0CF1020C15F586
:10318000001F08BF4CEBD37C04E04FF0080C01E0BB
:103190004FEAD37C0CEB4C0526FA05F606F0070641
:1031A000B6F1040C06D20EEB860CBDE870404CF074
:1031B000010C6047DFE80CF0090B02024FF0004100
:1031C000A1F500214FF0000070BD194610460128FE
:1031D00051EB010418BFD4F5001484BF002001F0A6
:1031E000004170BD0808A0F500114FEA3101704799
:1031F00043004FEAD30C4FEA3C0C43401FBF40074B
:103200000CF1605113F0FE4F70471CF0006F03D1BA
:103210000CF00041002070470CF0004343EA50706E
:1032200040EACC0010B500F00EF800BF000000929C
:103230004FEA0001FFF7D6BF4FF00041A1F5002192
:103240004FF0000070470EF1020E2EF0030E5EF8F4
:10325000044B244204D44FEA4102B2F17F4F11D80B
:103260004FEA4003B3F17F4F0CD80ED14FEAD07C28
:103270000CEB4C0C0CF1020CB2F17F4F08BF4CEB85
:10328000D17C04E04FF0080C01E04FEAD17C0CEB5C
:103290004C0324FA03F404F00704B4F1040C06D23E
:1032A0000EEB840CBDE810404CF0010C6047DFE8E9
:1032B0000CF0070802024FF00040A0F5800010BD9E
:1032C0000846420018BFD2F1807288BF00F000406B
:1032D00010BDF1EE100A4FF6FF71C0F2C03120EAC6
:1032E000010040F04070E1EE100A7047FF2141EA12
:1032F000D050C0057047FDF715BA04000008000063
:103300000000000000020001000010000240000068
:10331000000000A00000000005400000000000C800
:10332000000000000C4000000000409C0000000075
:10333000194000000020BCBE000000003440000026
:10334000BFC91B8E00000004B5400000504BCFD019
:103350006607E2CF010000006C4100003E8251AAE6
:10336000DFEEA73401000000D9420000DCB5A0E286
:103370003A301F97FFFFFFFFB4450000FD25A0C8AE
:10338000E9A3C14FFFFFFFFFFF3F000000000080E7
:1033900000000000FF3F000000000080000000006F
:1033A00000000000000000000102030406070809F5
:1033B0000000000001020304202020202020202003
:1033C00020202020202020200000000008340008B9
:1033D0000000002040000000C4010008483400083C
:1033E0004000002028070000E00100081C00000049
:1033F00043000000F8FFFFFF0C0000000E0000007B
:103400000F0000002E0000000024F400020302055B
:103410000404040508100814040404140E0E041F08
:1034200015150A100E0E041F15150A0100000000E4
:10343000000001010004081F080400000100000052
:08344000100000000000000074
:040000050800018965
:00000001FF
